:020000040800F2
:10000000B0060020350200083D0200083F0200084B
:1000100041020008430200084502000800000000F9
:10002000000000000000000000000000470200087F
:1000300049020008000000004B0200084D020008C1
:100040004F0200084F0200084F0200084F0200084C
:100050004F0200084F0200084F0200084F0200083C
:100060004F0200084F0200084F0200084F0200082C
:100070004F0200084F0200084F0200084F0200081C
:100080004F0200084F0200084F0200080000000065
:100090000000000000000000000000004F02000807
:1000A0004F0200084F0200084F0200084F020008EC
:1000B0004F0200084F0200084F0200084F020008DC
:1000C0004F0200084F0200084F0200084F020008CC
:1000D0004F0200084F0200084F0200080000000015
:1000E0004F0200084F0200084F0200080000000005
:1000F0000000000000000000000000004F020008A7
:10010000000000004F0200084F0200084F020008E4
:1001100000000000000000000000000000000000DF
:100120004F0200084F0200084F0200084F0200086B
:100130004F02000800000000000000000000000066
:100140000000000000000000000000004F02000856
:100150004F0200084F0200084F0200084F0200083B
:100160004F0200084F0200080000000000000000DD
:10017000000000000000000000000000000000007F
:10018000000000004F020008000000000000000016
:100190004F02000800F002F800F03CF80AA090E8D6
:1001A000000C82448344AAF10107DA4501D100F032
:1001B00031F8AFF2090EBAE80F0013F0010F18BFC3
:1001C000FB1A43F001031847F81500001816000049
:1001D000103A24BF78C878C1FAD8520724BF30C873
:1001E00030C144BF04680C60704700000023002445
:1001F00000250026103A28BF78C1FBD8520728BF37
:1002000030C148BF0B6070471FB501F079FA1FBDC0
:1002100010B510BD00F044F81146FFF7F5FF00F0EF
:10022000BFF900F062F803B4FFF7F2FF03BC00F07F
:1002300065F800000948804709480047FEE7FEE7E7
:10024000FEE7FEE7FEE7FEE7FEE7FEE7FEE7FEE786
:1002500004480549054A064B704700000D03000895
:1002600095010008B0000020B0060020B002002078
:10027000B002002070477047704710B500F008F8D2
:10028000006810BD10B5044600F002F8046010BD0F
:1002900000487047280000200048704728000020D0
:1002A0007546FFF7F9FFAE4605006946534620F054
:1002B0000700854618B020B5FFF7CAFFBDE820400B
:1002C0004FF000064FF000074FF000084FF0000B12
:1002D000AC46ACE8C009ACE8C009ACE8C009ACE881
:1002E000C00921F007018D46704710B50446AFF3F1
:1002F00000802046BDE81040FFF795BF0149182057
:10030000ABBEFEE726000200704700004EF68850A4
:10031000CEF20000016841F47001016070470000F6
:1003200043F64000C4F20200016840F6FF7241F457
:100330000011016045F20440C4F20000816991435C
:100340008161016821F03F010160016841F0020113
:100350000160816941F050018161C16941F003018F
:10036000C16150F8041C41F0010140F8041C40F246
:100370000040C4F20200016841F420410160016ABA
:1003800041F088410162C16841F42041C160816847
:100390008160416841F0C0014160704710B53C2068
:1003A0000021082200F06CF848F2A064C0F20104B9
:1003B000204600F025F83C200121202200F060F8C2
:1003C000204600F01DF83C200221002200F058F8E1
:1003D000204600F015F810BD43F63000C4F20200CC
:1003E000016845F2555241F00701016040F60000F6
:1003F000C4F202000168C0F20502114301607047B7
:100400000128B8BF704700BF013800BFFCD170475A
:1004100045F20042C4F20002136843F48073136093
:100420005369DB07FCD0106153699B07FCD59369C6
:1004300053691B06FCD51161116841F4007111600C
:10044000116841F4807111605169C907FCD040F016
:100450000100106150698007FCD5106820F48060AD
:100460001060906950694006FCD510691168C0B2EF
:1004700041F480611160116841F4007111607047AE
:1004800080B545F2004EC4F2000EDEF800C04CF418
:100490008073CEF8003000BFDEF81430DB07FBD0ED
:1004A000CEF81000DEF814008007FBD5DEF8180047
:1004B000DEF814000006FBD5CEF81010DEF81400AC
:1004C0004007FBD5CEF81020DEF8000040F40070A5
:1004D000CEF8000080BD000070B53C200321FFF77E
:1004E00097FF40F29804C2F20004207047F23050A7
:1004F000FFF786FF3C200421FFF78AFF607047F278
:100500003050FFF77DFF3C200521FFF781FF40F2CF
:100510009A05C2F20005287047F23050FFF770FFCD
:100520003C200621FFF774FF687047F23050FFF758
:1005300067FF3C200721FFF76BFF40F29C06C2F2E9
:100540000006307047F23050FFF75AFF3C20082178
:10055000FFF75EFF707047F23050FFF751FF2078D1
:100560006178000200B2084440F2A001C2F200012A
:10057000086028786978000200B2084440F2A401BB
:10058000C2F20001086030787178000200B20844BD
:1005900040F2A801C2F20001086070BD0000000036
:1005A00040F6140AC4F2020AFFF716FFFFF7B8FE7E
:1005B000FFF7F4FE9FED680B9FED691B40F28C087E
:1005C00040F29E0BC2F20008C2F2000B56EC109BE8
:1005D00054EC117B09E0002040F29401CAF80000BD
:1005E000C2F20001086801300860FFF775FF40F2B1
:1005F000A000C2F20000056840F2A400C2F20000B0
:10060000006840F29001C2F20001C8F80050086092
:1006100000F067FE41EC180B284600F062FE41EC4A
:10062000110BB0EE480AF0EE680A00F021FA51EC26
:10063000100B4A46334600F06BFE3A46234600F064
:100640008BFC00F01FFE40F28801C2F2000100287E
:1006500048BF00F5B47008605AF8040C80045CBF11
:1006600001208BF800009BF800000028BDD040F26C
:100670009400C2F2000000680428B6D8DFE800F059
:1006800012042C034B00B0E740F20000C2F200005D
:100690000068CAF8000049F2C010C0F22100FFF75C
:1006A000AFFE98E740F20400C2F20000006840F29A
:1006B0000C01CAF80000C2F20001D8F80000096875
:1006C000884292DA40F29000C2F20000006840F2E4
:1006D0001001C2F2000119E040F20400C2F2000071
:1006E000006840F21401CAF80000C2F20001D8F814
:1006F000000009688842BFF678AF40F29000C2F26D
:100700000000006840F21801C2F200010968884246
:10071000FFF66BAF5FE740F20800C2F2000000682E
:1007200040F21C01CAF80000C2F20001D8F8000033
:1007300009688842BFF64FAF40F2900040F22001B6
:10074000C2F20000C2F200010068096888423FF767
:100750004CAF40E700BF00BF0000000000806640D3
:10076000A7E8482EFF21094003B4019841000098F2
:1007700050EAC12018BF04204A0D18BF40F0010004
:1007800040F2FF72B2EB515F08BF40F00200012857
:1007900008BF052002B0704770B59B482DED020BD5
:1007A0002DED068B079D25F00044A04218DC9748EC
:1007B000844202DC0AD1069840B19DED060BBDECE7
:1007C000068B02B0BDE8704000F0CEBA002DCCBF61
:1007D0009FED8F0B9FED900BBDEC068B02B070BDB3
:1007E0008F48A04215DD8F48A042D8BF4FF0FF349C
:1007F00058DD9DED060B51EC100BFFF7B5FF0428FB
:1008000008BF00F0C5FA9DED060BBDEC068B02B0EB
:1008100070BD9DED060B51EC100B00F0D1FACDE947
:10082000060181489FED828BA0423CDD8248A042B8
:100830001FDD00249FED82AB9DED060B53EC1A2BC0
:1008400051EC100B00F0D4FA9DED060B41EC190BA6
:1008500053EC1A2B51EC100B00F05AFD53EC182BF3
:1008600000F060FE53EC192B00F076FBCDE9060199
:1008700049E09DED060B012453EC182B51EC100BB5
:1008800000F0B6FA9DED060B41EC190B53EC182B5A
:1008900051EC100B00F046FE53EC192B00F05CFB02
:1008A000CDE906012FE06848A0421FDD02249FED3C
:1008B000689B9DED060B53EC192B51EC100B00F0CF
:1008C00027FD53EC182B00F093FA9DED060B41EC3D
:1008D000180B53EC192B51EC100B00F023FE53ECCA
:1008E000182B00F039FBCDE906010CE09DED060B5D
:1008F000032453EC102B9FED580B51EC100B00F020
:100900002BFBCDE906019DED060B53EC102B51ECB2
:10091000100B00F0FDFC41EC180B53EC182B00F011
:10092000F7FC41EC190B4E480621B0EE490AF0EEF7
:10093000690A784400F09CF953EC182B51EC100B29
:1009400000F0E6FC41EC180B4648B0EE490AF0EE28
:10095000690A0521784400F08BF953EC192B51EC0E
:10096000100B00F0D5FC41EC100B51EC180B53ECC4
:10097000102B002C0EDA00F03BFA9DED061B53EC19
:10098000112B00F0C5FC9DED061B53EC112B00F064
:10099000BDFD35E000F02CFA9DED061B53EC112B4C
:1009A00000F0B6FC41EC100B2F48784400EBC4007B
:1009B00090ED001B51EC100B53EC112B00F0B2FD2D
:1009C0009DED061B53EC112B00F0ACFD41EC100B20
:1009D0002648784400EBC40090ED001B51EC100B4E
:1009E00053EC112B00F092FD41EC100B002DA2BF37
:1009F000BDEC068B02B070BD51EC100B00F0ECF9B1
:100A000041EC100B01E70000000010440000F07FF3
:100A1000182D4454FB21F93F182D4454FB21F9BFF4
:100A20000000DC3F0000203E0000F33F000000001B
:100A3000000000000000F03F0000E63F0000000062
:100A400000000000000000400080034000000000A3
:100A5000000000000000F83F000000000000F0BFB0
:100A6000520E0000080E0000920D00004A0D00001A
:100A700070B56F4E2DED040B2DED048B82B0DDF8BB
:100A800024C0DDE907235C422CF000411C4341EA0D
:100A9000D474069D22F00040B44205D86C422C4329
:100AA00040EAD474B4420BD99DED081B9DED060BB2
:100AB00002B0BDEC048B04B0BDE8704000F05EB93C
:100AC000ACF14054A4F17F641C430BD0022404EA2F
:100AD000AC7444EAD27405439FED578B9FED582BBD
:100AE00007D015E09DED060B51EC100B00F060F9FE
:100AF00042E0002C11BF012C9DED060B02B0BDECB5
:100B0000048B04BF04B070BD022C38D0032C3BD042
:100B10000B439FED4D1B9FED4E0B0AD0B14218D1F8
:100B2000B04209D121F0804120F080400991079026
:100B30000FE0002A15DA10E0474B7B44002C08BF79
:100B400093ED000B0DD0012C10D0022C17D0032CEC
:100B50001AD0B0421DD1002A03DAB0EE410AF0EEFD
:100B6000610A02B0BDEC048B04B070BD93ED000BC4
:100B700051EC100B00F030F941EC100BF1E7B0EE46
:100B8000480AF0EE680AECE7B0EE420AF0EE620ABC
:100B9000E7E7401A00159FED329B3C28C8BF8DED5A
:100BA000000B17DCBCF1000FBCBF10F13C0F8DED4A
:100BB000009B0FDB9DED080B53EC102B9DED060BFE
:100BC00051EC100B00F0C8F900F0FAF800F0F0F862
:100BD000CDE90001B4B1012C10D0022C9FED220B05
:100BE00053EC102B9DED000B51EC100B19D000F0C5
:100BF00099FC53EC182B00F095FCBDE7019880F0B0
:100C0000004001909DED000B53EC192B51EC100BA3
:100C100000F0FCFA04BF0220FFF734FB9DED000B4F
:100C20009FE700F07FFC53EC182B00F06FFCA3E76C
:100C30000000F07F00000000182D4454FB21094003
:100C4000182D4454FB2109C0182D4454FB21F9BF31
:100C5000182D4454FB21F93F7A0C000000000000DD
:100C60000000000000000000075C143326A6A13C31
:100C700070B504462DED028B4D1E00EBC500B0EEA5
:100C8000408AF0EE608A90ED000B35F0060017D038
:100C900053EC182B51EC100B00F03AFB41EC100B0D
:100CA0006D1E04EBC50090ED001B51EC100B53ECD6
:100CB000112B00F09DF841EC100B35F00600E7D148
:100CC000022D36D0042D1CD0062D1CBFBDEC028B8E
:100CD00070BD53EC182B51EC100B00F019FB94ED88
:100CE0000A1B53EC112B00F083F853EC182B00F087
:100CF0000FFB94ED081B53EC112B00F079F841EC3D
:100D0000100B53EC182B51EC100B00F001FB94ED81
:100D1000061B53EC112B00F06BF853EC182B00F072
:100D2000F7FA94ED040B53EC102B00F061F841EC52
:100D3000100B53EC182B51EC100B00F0E9FA94ED6A
:100D4000021B53EC112B00F053F853EC182B00F05E
:100D5000DFFA94ED001B53EC112B00F049F8BDECC9
:100D6000028B41EC100B70BD10B553EC102B51EC05
:100D7000100B00F03DF841EC100B10BD10B553EC1A
:100D8000112B51EC100B00F033F841EC100B10BD9F
:100D90009FED050B10B553EC102B51EC100B00F030
:100DA000B7FA41EC100B10BD00000000000000106D
:100DB00010B541EC100BFFF7EFFC51EC100B10BD20
:100DC00082B0CDE9000121F0004001909DED000BC3
:100DD00002B051EC100B704781F00041704780F079
:100DE0000040704721F00041704720F000407047FC
:100DF00010B591EA030F48BF83F0004300F19A83D6
:100E0000841A71EB030C05D2121943EB0C03001B7F
:100E100061EB0C014FEA1154A4EB135CDFF81CE109
:100E20001EEA430F18BF9EEA445F00F0748021EA77
:100E3000045123EA0E0343F48013DCF1200E32D375
:100E400022FA0CFE10EB0E0023FA0CFE41EB0E0111
:100E5000CCF1200E03FA0EFE10EB0E00CCF1200EAA
:100E600051F10001B1F5801F32D201EB045112FAA9
:100E70000EF2BDE8104058BF7047401C38BF5FEA13
:100E8000420218BF7047002814BF20F0010041F152
:100E900000014FEA410313F5001F38BF7047A1F16D
:100EA000C04100F02DBB012A43EB0302ACF1200C42
:100EB000DCF11F0E32BF4FF0000E23FA0CF310EBE3
:100EC000030041EB0451B4EB115FD0D0A1EB04510E
:100ED00001F58011490801EB04515FEA30000ED39F
:100EE00050F1000038BF12FA0EFE08D1BDE81040E4
:100EF000C9E7401C38BF5FEA4202CAD1C3E7BDE878
:100F000010404FEA410313F5001F38BF7047A1F1AD
:100F1000C04100F0F5BA9EEA445F08D011EA5E0FC6
:100F2000BDE8104004BF01F0004100207047BDE85B
:100F3000104070B500F096FA64FBBE3E0000E0FF82
:100F4000491058BFC1F140415B1058BFC3F1404345
:100F50008B42EFF3008070472DE9C04130B4DFF8D9
:100F6000A4C23CEA111418BF3CEA131400F0ED804F
:100F70001CEA111481EA030544EAD57418BF1CEA7F
:100F8000131500F0C880A4EB050404F17F7404F588
:100F900000344FF0004545EAC12145EAC32341EA48
:100FA000505143EA52534FEAC0204FEAC2229942BD
:100FB00008BF904200F09D804FEA13650FF244167F
:100FC000765D4FEA134506FB05F7C7F1807706FB10
:100FD00007F74FEAD737A7FB03687642A7FB06CE91
:100FE000C8F5803838BFA8F1010807FB08E6A6FB62
:100FF000028C4FF0000EE6FB03CEDCF1000CCEF1CC
:10100000004E38BFAEF1010EA6FB0C584FF00007A2
:10101000E6FB0E87A1FB08C6A0FB07CE16EB0E066B
:101020004FF0000545F10005E1FB076515F1E04EC5
:101030007EBFA4F580345FEA46066D4116F1800755
:1010400045F100054FEA172747EA05674FEA1525DE
:101050004FEA0666A6F1DE46B6F1805F20D9384633
:1010600005EBC47124F0010C01EB0C11BCF1FE6F17
:1010700002D8F0BCBDE8008124425CBF01F5801EAF
:101080009EEAC47F02D4F0BCBDE80081244200F196
:101090003980A1F1C041F0BCBDE8004100F030BA98
:1010A0004FEAD02040EA41504FEAD1214FEAD22204
:1010B00042EA43524FEAD323A7FB028607FB0366AB
:1010C00005FB02661EEA0E0F58BFA6EB0056B6EBF4
:1010D00000564FEA520E4EEAC37E18EB0E0E56EB48
:1010E000530EBCD518EB02085E417F1C55F100057C
:1010F000B5E74FF480154FF000074FF000064FF0B2
:101100000008ACE701F1C04101F000414FF00000E0
:10111000F0BCBDE800810CEA131511EA0C1F00D0E9
:101120000CE013EA0C1F00F026804FF0000081EA6B
:10113000030101F00041F0BCBDE80081F0BCBDE856
:10114000004181EA030100F0DBB9F0BCBDE80041D9
:1011500070B500F087F900BF097EFC3E00F007B8CB
:101160004FF0000081EA030101F00041704781EA7D
:10117000030100F0C5B9F0BCBDE8004122494FF0C1
:1011800000007047FFFDFBF9F7F5F4F2F0EEEDEB30
:10119000E9E8E6E4E3E1E0DEDDDBDAD8D7D5D4D375
:1011A000D1D0CFCDCCCBCAC8C7C6C5C4C2C1C0BFC1
:1011B000BEBDBCBBBAB9B8B7B6B5B4B3B2B1B0AFC7
:1011C000AEADACABAAA9A8A8A7A6A5A4A3A3A2A1AB
:1011D000A09F9F9E9D9C9C9B9A9999989797969566
:1011E00095949393929191908F8F8E8E8D8C8C8B02
:1011F0008B8A89898888878786858584848383828A
:10120000828181800000FF070000F87F51EA030C13
:1012100017D41CF5801F58BFBCF5801F00F1068055
:10122000994218BF704708BF9042704707D711F521
:10123000801F58BF13F5801F19D499427047894207
:1012400070471CF5801F08D5BCF5801FF7D58B4271
:1012500018BF704708BF824270474FF4001C1CEB58
:10126000410F38BF1CEB430F01D28B42704770B562
:1012700000F0F8F8922449004FF000514FF08053ED
:10128000FFF75EBE4FEA41034FEA5353A3F5806375
:10129000D3F11E03C8BFD3F1210C0CDD4FF0004287
:1012A00042EAC12242EA505232FA03FC8CEAE17C63
:1012B000ACEBE1707047102BC4BF0020704703F502
:1012C000787CBCF1FF3F04D06FF0004282EA21003D
:1012D000704770B500F0C6F849922480002070472E
:1012E000F2E710F0004248BF4042B0FA80F310FA33
:1012F00003F10AD0C3F11D0303F5806302EB03522F
:101300004FEA415002EBD12170474FF00000704787
:1013100070B5DFF848C11CEA111E1EBF1CEA131588
:101320009EEA0C0F95EA0C0F00F06F8081EA03042F
:101330004EEAD47EAE4421EA4C1123EA4C1341F428
:10134000801143F48013AEF17F7EA1FB024CA0FB21
:101350000365361955EB0C05A1FB034C4CF100035A
:10136000A0FB021C16EB0C06654153F10003094279
:1013700018BF46F0010613F4007F0BD14FEA03318A
:101380004FEA053041EA155140EA165034036FF038
:1013900003020AE04FEAC3214FEAC52041EA555152
:1013A00040EA5650F4026FF0020202EB2E4201EBCB
:1013B000025585EACE710AD05FEA440C18BF24F0CA
:1013C000004450F1000041F1000120EAD47040F2E5
:1013D000FE7C624500D270BDA84214BF4FF080442D
:1013E0004FF04044002E08BF0024BEF1806FA8BF1C
:1013F000A1F1C041BDE8704080F2828001F1C0419E
:1014000001F000414FF0000070470CEA13159EEA0E
:101410000C0F18BF95EA0C0F06D081EA030E4FF0AF
:1014200000000EF0004170BD00F01CF88900013E84
:1014300000F007B800F009B84FEA430C5FEA5C5CC3
:1014400008D081EA030100F05BB84FEA410C5FEA83
:101450005C5CF6D102494FF0000070470000FF07C6
:101460000000F87F0EF1020E2EF0030E5EF8046B02
:10147000364205D4012A43EB030515F5001F12D8A7
:10148000012841EB010C1CF5001F0CD80ED14FEACE
:10149000D17C0CEB4C0C0CF1020C15F5001F08BFB5
:1014A0004CEBD37C04E04FF0080C01E04FEAD37C16
:1014B0000CEB4C0526FA05F606F00706B6F1040C0F
:1014C00006D20EEB860CBDE870404CF0010C604774
:1014D000DFE80CF0090B02024FF00041A1F50021FA
:1014E0004FF0000070BD19461046012851EB010471
:1014F00018BFD4F5001484BF002001F0004170BD76
:101500000808A0F500114FEA3101704710B591EAC3
:10151000030F81F000413FF573AC83F0004300F00E
:1015200009B8000010B591EA030F48BF83F00043EB
:101530003FF566AC841A71EB030C07D28CF0004CBB
:10154000121943EB0C03001B61EB0C014FEA115421
:10155000A4EB135CDFF8A4E11EEA430F18BF9EEA78
:10156000445F00F0B48021EA045123EA6E03524242
:10157000C3EB6E0338BF5B1EDCF1200E25D322FACD
:101580000CFE10EB0E0043FA0CFE41EB0E01CCF109
:10159000200E03FA0EFE10EB0E00CCF1200E51F1DE
:1015A000000129D401EB045112FA0EF2BDE81040FB
:1015B00058BF7047401C1CBFB2F1004F7047002855
:1015C0000CBF491C20F00100704712EB020E43EBE8
:1015D000030218BF4FF0010E4EEA4202ACF1200C9C
:1015E000DCF11E0E56D943FA0CFE10EB0E00CCF1C6
:1015F0001E0E51F1FF31D5D50EF1010E12FA0EFE7D
:10160000404141EB010101EB445C5FEA5C5C10D9B5
:1016100001EB045110EBDE7038BFBEF1004FBDE8A6
:10162000104018BF704700280CBF491C20F0010073
:10163000704734D24FEAD42C24F4006411F5001121
:101640001BD0B1FA81F20B3AA41AA41ED2F12003E6
:10165000914030FA03F31943904001EBCC7101EB58
:101660000451002CBDE81040A8BF704701F1C041F3
:1016700001F000414FF000007047B0FA80F310FA1B
:1016800003F102D1BDE810407047E41A173C480549
:10169000C90AE2E701EB0451BDE810407047491068
:1016A0004FEA300001EB0451BDE8104002E04FF07A
:1016B000000170474A0008BF0042F8D0B2F5001F91
:1016C00028BF704701F000414FF0000070479EEACC
:1016D000445F07D011EA5E0FBDE8104004BF00214F
:1016E00000207047BDE8104070B5FFF7BBFE00BF9B
:1016F00040DFF63E104683F0004170470000E0FFF7
:10170000F1EE100A4FF6FF71C0F2C03120EA01007D
:1017100040F04070E1EE100A704700000000000049
:101720004FBB610567ACDD3F182D4454FB21E93FF9
:101730009BF681D20B73EF3F182D4454FB21F93FE8
:10174000E2652F227F2B7A3C075C143326A6813C6E
:10175000BDCBF07A8807703C075C143326A6913C19
:10176000C4EB98999999C9BF711623FEC671BCBF85
:101770006D9A74AFF2B0B3BF9AFDDE522DDEADBFED
:101780002F6C6A2C44B4A2BF0D5555555555D53F05
:10179000FF8300922449C23F6E204CC5CD45B73F20
:1017A000513DD0A0660DB13FEB0D76244B7BA93F98
:1017B00011DA22E33AAD903F000000000000000083
:1017C000E01700080000002024000000D0010008FD
:1017D000041800082800002088060000EC0100081A
:1017E000020000000600000004000000FE010000EE
:1017F00038FFFFFF56000000CFFEFFFFFA00000099
:04180000A2FEFFFF46
:0400000508000235B8
:00000001FF
