:020000040800F2
:100000009806002021020008290200082B0200089F
:100010002D0200082F020008310200080000000035
:100020000000000000000000000000003302000893
:1000300035020008000000003702000839020008FD
:100040003B0200083B0200083B0200083B0200089C
:100050003B0200083B0200083B0200083B0200088C
:100060003B0200083B0200083B0200083B0200087C
:100070003B0200083B0200083B0200083B0200086C
:100080003B0200083B0200083B02000800000000A1
:100090000000000000000000000000003B0200081B
:1000A0003B0200083B0200083B0200083B0200083C
:1000B0003B0200083B0200083B0200083B0200082C
:1000C0003B0200083B0200083B0200083B0200081C
:1000D0003B0200083B020008E504000800000000A5
:1000E0003B0200083B0200083B0200080000000041
:1000F0000000000000000000000000003B020008BB
:10010000000000003B0200083B0200083B02000820
:1001100000000000000000000000000000000000DF
:100120003B0200083B0200083B0200083B020008BB
:100130003B0200080000000000000000000000007A
:100140000000000000000000000000003B0200086A
:100150003B0200083B0200083B0200083B0200088B
:100160003B0200083B020008000000000000000005
:10017000000000000000000000000000000000007F
:10018000000000003B02000800000000000000002A
:100190003B02000800F002F800F033F80AA090E8F3
:1001A000000C82448344AAF10107DA4501D100F032
:1001B00028F8AFF2090EBAE80F0013F0010F18BFCC
:1001C000FB1A43F0010318479C040000AC04000034
:1001D0000023002400250026103A28BF78C1FBD850
:1001E000520728BF30C148BF0B607047642900F038
:1001F0007F80002070471FB500F026FA1FBD10B5A4
:1002000010BD00F02FF91146FFF7F5FF00F0CCF913
:1002100000F04DF903B4FFF7F2FF03BC00F050F912
:100220000948804709480047FEE7FEE7FEE7FEE78A
:10023000FEE7FEE7FEE7FEE7FEE7FEE704480549C6
:10024000054A064B70470000D104000895010008DC
:1002500098000020980600209802002098020020B4
:100260000FB41CB5074B06AA7B446946009005985D
:1002700000F0DBF80020694600F0EAF81CBC5DF8ED
:1002800014FB0000E50100002DE9F0410E46044694
:10029000002020622046E168884730B3252805D039
:1002A000D4E901219047206A401CF2E7E16820462A
:1002B00000278847050018D0A5F14100192802D869
:1002C00020354FF400673246294620462760FFF765
:1002D0008DFF40B1012804D0F61D26F00706083630
:1002E000D8E7361DD6E72846DAE7206ABDE8F08170
:1002F0002DE9F0410646002410687529314616A5FF
:1003000010D0AFF30080002802DA404213A507E0C6
:1003100031688A0701D512A502E0490704D511A565
:10032000012401E0AFF3008000210A2206F1240736
:1003300009E0B0FBF2FCB0FBF2F302FB1C00303032
:1003400078541846491C0028F3D123462A463046E3
:10035000BDE8F04100F00BB8000000002D000000E7
:100360002B000000200000007047704770472DE907
:10037000F0470D4699469246044600F1240801686C
:10038000880604D5E06921F01001216000E0012019
:10039000A84201DD471B00E00027A1697A1902EBA2
:1003A0000900081AA0612078C00602D42046AFF3E5
:1003B0000080002608E0D4E901211AF806009047E1
:1003C000206A401C761C20624E45F4DB2078C00673
:1003D0000AD52046AFF3008006E0D4E901213020A1
:1003E0009047206A401C2062381EA7F10107F4DC08
:1003F00007E0D4E9012118F805009047206A401C65
:100400002062281EA5F10105F3DC2046AFF3008031
:100410002078000602D50220BDE8F0870120FBE726
:1004200001694A1C02610878704700B58FB0CDE9B8
:1004300001310021059105497944CDE903101146A8
:100440006846FFF721FF0FB000BD0000E5FFFFFF8A
:100450000A6802F8010B0A60704700000048704704
:10046000000000207546FFF7F9FFAE46050069461B
:10047000534620F00700854618B020B5FFF7DEFE92
:10048000BDE820404FF000064FF000074FF0000895
:100490004FF0000BAC46ACE8C009ACE8C009ACE8D2
:1004A000C009ACE8C00921F007018D46704710B5BE
:1004B0000446AFF300802046BDE81040FFF7AABE17
:1004C00001491820ABBEFEE726000200704700007D
:1004D0004EF68850CEF20000016841F470010160D0
:1004E0007047000044F20440C4F2000050F8041CBD
:1004F000890658BF7047016840F29002C2F20002BC
:10050000116001607047000080B543F63001C4F20D
:100510000201086840F0070008604FF480704861ED
:100520000020C4F20200026842F0A3020260D0F888
:10053000002442F00502C0F80024D0F8002842F060
:10054000551242F4AA42C0F8002842F20802C4F24E
:10055000010252F8043C42F8043C136843F00103E2
:100560001360136843F07C5343F0010313600A697E
:1005700042F400320A6144F20841C4F2000140F240
:1005800083620A602D224A60016A41F4EE410162F1
:1005900000F002F880BD00004EF20410CEF2000020
:1005A000402101607047000042F20806C4F20106D3
:1005B000FFF7AAFF40F264074CF6CD4840F26C0901
:1005C00040F2700440F2600AC2F20007CCF6CC4858
:1005D000C2F20009C2F2000419A5C2F2000A4FF0EB
:1005E000000B00BF306841F67A7140F08040306007
:1005F000706C45F6C52248434109C0F67C22A1FB38
:1006000002124DF68361D209C4F21B31A0FB010135
:10061000A2FB080340F26800C2F200000260880CEE
:100620003860D80800EB8000A2EB4000C9F8000059
:1006300020462946FFF714FECAF800B0D2E700BFF3
:1006400025640D0A00000000F1EE100A4FF6FF715C
:10065000C0F2C03120EA010040F04070E1EE100A23
:100660007047000074060008000000209806000093
:04067000D0010008AD
:0400000508000221CC
:00000001FF
