:020000040800F2
:1000000060060020190200082102000823020008EF
:10001000250200082702000829020008000000004D
:100020000000000000000000000000002B0200089B
:100030002D020008000000002F0200083102000815
:1000400033020008330200083302000833020008BC
:1000500033020008330200083302000833020008AC
:10006000330200083302000833020008330200089C
:10007000330200083302000833020008330200088C
:1000800033020008330200083302000800000000B9
:100090000000000000000000000000003302000823
:1000A000330200083302000833020008330200085C
:1000B000330200083302000833020008330200084C
:1000C000330200083302000833020008330200083C
:1000D0003302000833020008330200080000000069
:1000E0003302000833020008330200080000000059
:1000F00000000000000000000000000033020008C3
:100100000000000033020008330200083302000838
:1001100000000000000000000000000000000000DF
:1001200033020008330200083302000833020008DB
:100130003302000800000000000000000000000082
:100140000000000000000000000000003302000872
:1001500033020008330200083302000833020008AB
:100160003302000833020008000000000000000015
:10017000000000000000000000000000000000007F
:100180000000000033020008000000000000000032
:100190003302000800F002F800F02EF80AA090E800
:1001A000000C82448344AAF10107DA4501D100F032
:1001B00023F8AFF2090EBAE80F0013F0010F18BFD1
:1001C000FB1A43F00103184788030000980300005E
:1001D0000023002400250026103A28BF78C1FBD850
:1001E000520728BF30C148BF0B6070471FB500F0F1
:1001F000A1F91FBD10B510BD00F036F81146FFF78C
:10020000F5FF00F07FF900F054F803B4FFF7F2FFB8
:1002100003BC00F057F80000094880470948004730
:10022000FEE7FEE7FEE7FEE7FEE7FEE7FEE7FEE7A6
:10023000FEE7FEE704480549054A064B7047000003
:10024000D50200089501000860000020600600202B
:100250006002002060020020704770477047000075
:1002600000487047000000207546FFF7F9FFAE46D2
:1002700005006946534620F00700854618B020B5B2
:10028000FFF7D8FFBDE820404FF000064FF0000711
:100290004FF000084FF0000BAC46ACE8C009ACE8EA
:1002A000C009ACE8C009ACE8C00921F007018D46DF
:1002B000704710B50446AFF300802046BDE81040FB
:1002C000FFF7A3BF01491820ABBEFEE726000200DE
:1002D000704700004EF68850CEF20000016841F4ED
:1002E000700101607047000043F64000C4F2020054
:1002F000016840F6FF7241F40011016045F20440CC
:10030000C4F20000816991438161016821F03F01DD
:100310000160016841F002010160816941F0500112
:100320008161C16941F00301C16150F8041C41F0D1
:10033000010140F8041C40F20040C4F202000168D0
:1003400041F420410160016A41F088410162C168C5
:1003500041F42041C16081688160416841F0C00181
:1003600041607047012804D0002808BF41F0800197
:1003700001E041F0C00180B5C8B200F023F880BDB3
:10038000B0B5044608461146FFF7ECFF2078002878
:1003900008BFB0BD0134002503E000BF605D01353A
:1003A00028B10F2DFAD8C0B200F028F8F6E7B0BD9A
:1003B00043F63000C4F20200016841F00701016019
:1003C0007047000070B500F0F002000102F10C016E
:1003D00000F10C0500F108064E2002F1080400F0BF
:1003E00071F84E20214600F06DF8E9B24E2000F081
:1003F00069F8F1B24E2000F065F870BD70B500F0FC
:10040000F002000102F10D0100F10D0500F10906F5
:100410004E2002F1090400F055F84E20214600F06C
:1004200051F8E9B24E2000F04DF8F1B24E2000F044
:1004300049F870BD80B54FF47A7000F03DF8302077
:10044000FFF7C0FF4FF47A7000F036F83020FFF766
:10045000B9FF4FF47A7000F02FF83020FFF7B2FFA9
:100460004FF47A7000F028F82020FFF7ABFF4FF42C
:100470007A7000F021F82820FFF7A4FF4FF47A707B
:1004800000F01AF80820FFF79DFF4FF47A7000F093
:1004900013F80120FFF796FF4FF47A7000F00CF884
:1004A0000620FFF78FFF4FF47A7000F005F80C205C
:1004B000FFF788FF80BD000042F21070013800BFD6
:1004C000FCD1704745F20042C4F20002136843F4C5
:1004D000807313605369DB07FCD01061506980079B
:1004E000FCD5906950690006FCD511615069400740
:1004F000FCD5106820F480601060106840F4007033
:1005000010607047FFF754FFFFF7EEFEFFF792FF12
:1005100003A001210022FFF733FF00BFFEE700BF69
:100520004D6963726F73204D6563616161616161E3
:1005300020000000F1EE100A4FF6FF71C0F2C0314A
:1005400020EA010040F04070E1EE100A7047000020
:10055000600500080000002060060000D0010008CF
:0400000508000219D4
:00000001FF
