:020000040800F2
:10000000D8060020550200085D0200085F020008C3
:100010006102000863020008650200080000000099
:10002000000000000000000000000000670200085F
:1000300069020008000000006B020008D10D0008F2
:100040006F0200086F0200086F0200086F020008CC
:100050006F0200086F020008710D00086F020008AF
:100060006F0200086F0200086F0200086F020008AC
:100070006F0200086F0200086F0200086F0200089C
:100080006F0200086F020008690C00080000000001
:100090000000000000000000000000006F020008E7
:1000A0006F0200086F0200086F0200086F0200086C
:1000B0006F0200086F0200086F0200086F0200085C
:1000C0006F0200086F0200086F0200086F0200084C
:1000D0006F0200086F0200086F02000800000000B5
:1000E0006F0200086F0200086F02000800000000A5
:1000F0000000000000000000000000006F02000887
:10010000000000006F0200086F0200086F02000884
:1001100000000000000000000000000000000000DF
:100120006F0200086F0200086F0200086F020008EB
:100130006F02000800000000000000000000000046
:100140000000000000000000000000006F02000836
:100150006F0200086F0200086F0200086F020008BB
:100160006F0200086F02000800000000000000009D
:10017000000000000000000000000000000000007F
:10018000000000006F0200080000000000000000F6
:100190006F02000800F002F800F04CF80AA090E8A6
:1001A000000C82448344AAF10107DA4501D100F032
:1001B00041F8AFF2090EBAE80F0013F0010F18BFB3
:1001C000FB1A43F001031847E0230000002400005D
:1001D000103A24BF78C878C1FAD8520724BF30C873
:1001E00030C144BF04680C60704700000023002445
:1001F00000250026103A28BF78C1FBD8520728BF37
:1002000030C148BF0B607047662902F070816429D5
:1002100000F05480002070471FB502F056F900F03E
:10022000ADFB04000020002101F062FCE0601FBD76
:1002300010B510BD00F0A2FC1146FFF7EDFF00F075
:10024000EDFF00F0C0FC03B4FFF7F2FF03BC00F0C9
:1002500001FD00000948804709480047FEE7FEE726
:10026000FEE7FEE7FEE7FEE7FEE7FEE7FEE7FEE766
:1002700004480549054A064B70470000650F000811
:1002800095010008D8000020D8060020D8020020E0
:10029000D80200200FB41CB5074B06AA7B44694660
:1002A0000090059800F051FB0020694600F060FBCB
:1002B0001CBC5DF814FB0000D10600002DE9F041E4
:1002C0000646002410687529314616A510D0AFF3F4
:1002D0000080002802DA404213A507E031688A074F
:1002E00001D512A502E0490704D511A5012401E0BA
:1002F000AFF3008000210A2206F1240709E0B0FBD9
:10030000F2FCB0FBF2F302FB1C00303078541846CC
:10031000491C0028F3D123462A463046BDE8F04167
:1003200000F0A7B8000000002D0000002B00000026
:10033000200000002DE9F05F894604464FF0000AD6
:10034000DFF824B1FB44C0F820A02046E1688847CC
:1003500000287DD0252806D0D4E901219047206AC5
:10036000401C2062F1E700255F462046E16888478F
:100370002028064607DB312E05D2B81910F8200CCC
:1003800008B10543F1E7A80701D525F00405C4F835
:100390001CA00027C4F818A02A2E09D0304601F06E
:1003A0009FFB38B304EB8708303EC8F8186019E0AB
:1003B00059F8041B204604EB87029161E1688847E5
:1003C000012F064618D1E069002820DA25F0200523
:1003D0001DE0D8F8180000EB800006EB4000303834
:1003E000C8F818002046E1688847064601F078FB07
:1003F0000028EED1012F0AD02E2E08D12046E16828
:1004000088477F1C0646022F45F02005C4DBA06903
:10041000002803DA404245F00105A061E80701D059
:1004200025F01005A6B1A6F14100192802D8203602
:1004300045F400654A463146204625604D46FFF7A3
:10044000E3FE60B1012807D0ED1D25F0070000E0B4
:1004500007E000F1080978E705F1040975E730467F
:100460007AE7206ABDE8F09FAA2100007047704734
:1004700070472DE9F0470D4699469246044600F133
:1004800024080168880604D5E06921F01001216084
:1004900000E00120A84201DD471B00E00027A16920
:1004A0007A1902EB0900081AA0612078C00602D46C
:1004B0002046AFF30080002608E0D4E901211AF8B5
:1004C00006009047206A401C761C20624E45F4DBF3
:1004D0002078C0060AD52046AFF3008006E0D4E9B4
:1004E000012130209047206A401C2062381EA7F16D
:1004F0000107F4DC07E0D4E9012118F80500904772
:10050000206A401C2062281EA5F10105F3DC20466C
:10051000AFF300802078000602D50220BDE8F08706
:100520000120FBE72DE9FF4F0C461E464FF0FF3739
:100530008BB0D2E90001DDF860800A908A46C1F3F1
:100540000A5505B93D46002108464FF00000BAF1B2
:10055000000F00F4400005DA00EB80004FF440018A
:1005600001EA50004FEA9059B9F1010F00DDB94698
:100570000A9850EA4A000ED044F61050A5F2FF3512
:1005800045432F14B8F1000F1ED07542291E1EDD01
:10059000C9F100021CE0B8F1010F4FF0000001D0DA
:1005A000302103E0F24305E02154401CB042FBDB64
:1005B00030460022002121540B99C1F80880C1E97E
:1005C00000200FB0BDE8F08FBD1B6D1CDEE74A4672
:1005D00000DA694206A800F05BFA06AB93E8070070
:1005E00003AB83E8070050460A9900F098FE8DE8B7
:1005F0000700A0F500501F3800900398002D0ADD79
:1006000042F21F014A460844002303A903906846AA
:1006100001F002F909E0A0F500504A461F38002316
:1006200003A90390684601F00CF98DE80700000467
:10063000000C03D04FF0FF30410800E01046B8F145
:10064000000F03D00022009215461EE0751E05D44F
:1006500000F098F9303262556D1EF9D5B34601228B
:10066000084302D000227F1C04E02078302801D10A
:1006700000227F1E002A099784D01DE0112D07DA81
:1006800000F080F9303262556D1C50EA0102F5D15C
:10069000084302D00098C8B10EE00021681E05E0B2
:1006A000235C625C63542254401E491C8142F7DB88
:1006B000AB46A81B401E0990002004F80B000B98C5
:1006C000099AC0F80880C0E9002B7AE711264FF09C
:1006D000000857E72DE9F04F88460446D21D22F066
:1006E000070191B0D1E90001CDE90A0101F0E0F97B
:1006F00002460B98C00F01D02D2007E0206881072B
:1007000001D52B2002E0202101EAC000032A099034
:1007100001D0072A05DB03464146204600F078F960
:100720000BE12078800601D5E06900E00620B8F1F1
:10073000650F814606D0B8F1660F18D0B8F1670F83
:1007400070D131E00020B9F1110F009001DB1123CD
:1007500001E009F101030AAA01A90CA8FFF7E2FED2
:10076000DDE90C70002609F10105834647E0012010
:100770004B4600904FF000470AAA01A90CA8FFF7CA
:10078000D1FEDDE90DB00C995D46002610B909F1E6
:1007900001000D18B9EB050003D4C0F1FF3609F1D3
:1007A0000105A5EB09002BE0B9F1010F01DA4FF0CB
:1007B00001090020B9F1110F0090484601DD112315
:1007C00000E003460AAA01A90CA8FFF7ABFEDDE989
:1007D0000C704D4600268346207800070AD4AB45AE
:1007E00000DA5D4601A8012D04DD411911F8011C54
:1007F000302907D04F4502DA17F1040F04DA01203F
:1008000082460FE06D1EEEE7002F02DCED1B3E443A
:1008100003E0781CA84200DD7D1CB81B00F1010A32
:100820004FF000472078000703D4AA4501DB4FF0C2
:10083000FF3A0021B7F1004F0DF143088DF8431046
:1008400024D002202B23002F01DA7F422D230A21FE
:10085000021EA0F1010000DC5FB197FBF1FC97FBE9
:10086000F1F201FB1C7C17460CF1300C08F801CDAD
:10087000EEE7A8F1010003702188090501D54521A3
:1008800000E06521A0F1010800F8011C09980FA9FA
:10089000A1EB0807FF1D00B10120411901EBEA702F
:1008A000A1693844081A401EA0612078C00602D40D
:1008B0002046AFF30080099828B1D4E90121904780
:1008C000206A401C20622078C00622D52046AFF363
:1008D00000801EE0002E04DBB34502DD01A8805D30
:1008E00000E03020D4E901219047206A401C2062BA
:1008F000761CAAF101005FEA000A0AD100F03EF876
:10090000C0680168405CD4E901219047206A401C1E
:100910002062281EA5F10105DCDC07E0D4E90121F5
:1009200018F8010B9047206A401C2062381EA7F17E
:100930000107F3DC2046AFF30080032011B041E64D
:1009400001694A1C02610878704700B58FB0CDE993
:1009500001310021059105497944CDE90310114683
:100960006846FFF7E7FC0FB000BD0000E5FFFFFFA2
:100970000A6802F8010B0A607047000000487047DF
:100980003800002030B5B0F10A0271F100034FEADF
:10099000900E4EEA817EB0EB0E0061EB91014FEAC2
:1009A000101E4EEA017E10EB0E0041EB11114FEAD2
:1009B000102E4EEA016E10EB0E0041EB11214FEAB2
:1009C000104E4EEA014E10EB0E0041EB1141401863
:1009D00041F100014FEAD00040EA41704FEAD101F5
:1009E0004FEA810444EA907410EB800544EB010463
:1009F0006D1944EB0404521BA3414FF0000348BFA0
:100A00000A3200D530BD401C41F1000130BD00006C
:100A10002DE9F0411F46044603260168072A01F428
:100A2000006004DB08B116A505E016A503E008B1D7
:100A300015A500E015A521F010002060A069C01EDA
:100A4000A0610FB1401EA0612046AFF300804FB1FE
:100A5000D4E9012138469047206A401C2062C01C1E
:100A6000206206E0206AFAE7D4E9012115F8010BBB
:100A70009047761EF8D22046AFF30080BDE8F081A3
:100A80004E414E006E616E00494E4600696E660032
:100A90002DE9F047814616468AB0354878440DC89E
:100AA0008DE80D0032487844801C03AC0DC884E802
:100AB0000D0041F69B300844372190FBF1F290FB8A
:100AC000F1F5A5F1800501FB12041B3C02D564423F
:100AD000012000E00020DFF898A080460027FA44BB
:100AE000AAF1BE0A0EE0E0070AD03246684607EBDC
:100AF000470101230AEB810100F0A3FE8DE8070006
:100B000064107F1C002CEED1194F7F44AE3F19E0DA
:100B1000E80715D007EB04100DF1180A90E80E0055
:100B20008AE80E00C068F04201D198190890324658
:100B3000012306A903A800F084FE03AB83E80700A5
:100B40006D10641C002DE3D14FF00103324669465D
:100B5000B8F1000F03A802D000F05EFE01E000F043
:100B600070FEC9E90001C9F808200AB0BDE8F087A5
:100B7000E01A000000487047180000207546FFF793
:100B8000F9FFAE4605006946534620F0070085464A
:100B900018B020B5FFF76CFBBDE820404FF0000611
:100BA0004FF000074FF000084FF0000BAC46ACE8E8
:100BB000C009ACE8C009ACE8C009ACE8C00921F044
:100BC00007018D46704710B50446AFF300802046FC
:100BD000BDE81040FFF737BB30B44FF0013C50F890
:100BE000042B51F8043BCCFA52F4D51A20D1FCB9AD
:100BF00050F8042B51F8043BCCFA52F4D51A17D113
:100C0000B4B950F8042B51F8043BCCFA52F4D51A7D
:100C10000ED16CB950F8042B51F8043BCCFA52F4C5
:100C2000D51A05D1002CDAD030BC4FF00000704747
:100C300029BAB1FA81F111F01801D1F120008440F4
:100C4000F2D1CA40CB4012F0FF0213F0FF0330BCD8
:100C5000D01A704701491820ABBEFEE726000200FB
:100C6000704700000000000080B540F21000C2F2A2
:100C7000000090ED000A40F28800C2F2000080ED12
:100C8000000A42F24C00C4F2010090ED001A40F25A
:100C90008400C2F2000040F2000190ED002AC2F28E
:100CA000000191ED003A30EE020A30EE032A80EEA8
:100CB000022A40F2B801B8EE411AC2F2000181EDF9
:100CC000001A40F2B401C2F2000181ED001A40F2B4
:100CD0008001C2F20001B7EE004A81ED002A40F225
:100CE000B001C2F2000191ED003A34EE433A22EE37
:100CF000033A34EE422A20EE020A33EE013A80ED46
:100D0000000A11EE100A81ED003A01F06DFB9FED33
:100D1000100B53EC102B01F07BF99FED0F0B53ECF4
:100D2000102B00F0D5FF9FED0E0B53EC102B01F0B4
:100D30006FF99FED0D0B53EC102B00F021FF41ECF0
:100D4000100B40F2D000C2F2000080ED000B80BD1D
:100D50006666666666660A400000000000FEAF40F8
:100D6000000000000000594000000000000049C0E1
:100D7000B0B543F61440C4F20100016840F2C40467
:100D800041F00101016040F2C800C2F200000121FF
:100D9000016040F20A00C2F200000078C2F20004D2
:100DA0000021216000F0F2F8206840F29005C2F2C4
:100DB0000005285C002808BFB0BD00BFC0B200F02D
:100DC000F1F92068411C685C21600028F6D1B0BDB3
:100DD000B0B540F2CC05C2F20005286801F004FB72
:100DE0009FED330B53EC102B00F0CAFE00F096FE83
:100DF0009FED370A01EE100AB4EE401AF1EE10FA38
:100E0000286013DB00242C60802000F0B5F804F18A
:100E10004000C0B200F0B0F8542500BF002000F040
:100E2000B7F9013DFAD10134062CEDD140F2C804E6
:100E3000C2F20004206801282CD140F2BC05C2F2A5
:100E40000005286801F0CDF89FED1B0B53EC102B2B
:100E500001F0DEF89FED1A0B02460B4651EC100B29
:100E600000F036FF9FED180B53EC102B01F0D0F87B
:100E700001F088F8024640F2C000C2F200000260B1
:100E800040F29000C2F2000012A1FFF703FA002026
:100E9000206028602068002818BFB0BD40F2BC0068
:100EA000C2F20000016801310160B0BD00BF00BFA7
:100EB0009A9999999999A93FFCA9F1D24D62403F1D
:100EC000000000000000F03F0000000000004E4065
:100ED0000000A64225642042504D202020202020E2
:100EE0000000000043F60400C4F20200416801F073
:100EF0000C0242F20041082AC0F2F40106D0042A92
:100F00001DD147F64001C0F27D1118E00268036868
:100F1000520247F64002C0F27D1203F03F0358BF71
:100F20000A460168B2FBF3F20368C1F3881151432A
:100F3000C3F30142022303EB4202B1FBF2F140F2A0
:100F40000402C2F200021160406842F29851C0F3FC
:100F50000310C0F60001085C116821FA00F010606F
:100F6000704700004EF68850CEF20000016841F450
:100F7000700101607047000080B540F21441C4F276
:100F8000020102220A6000F0F9F880BD40F6140167
:100F9000C4F2020100F5007008604CF2503000BF4E
:100FA000013800BFFCD1086820F400700860704769
:100FB00010B543F64400C4F20200072140F8141CA7
:100FC000016843F6004441F4804101604FF6084057
:100FD000CFF6FF70C4F201040021215000F006F9A1
:100FE000206845F2555240F0010020606068C0F270
:100FF000050240F001006060A06840F00100A060C0
:1010000043F61440C4F20100016841F0010101609F
:1010100040F20040C4F20200D0F800141143C0F8BE
:101020000014016840F6850211430160016A41F431
:10103000A00141F4A0410162FFF754FF40F2040017
:10104000C2F20000006844F6D351C1F26201A0FB75
:101050000101C80900F0B8F810BD000010B543F652
:101060004400C4F20200016842F2080441F48071B5
:101070000160C4F2010454F8040C40F0200044F86C
:10108000040C206840F480602060206840F001007B
:10109000206000F0B3F80720E0620020C4F20200F4
:1010A000016841F44041016010BD000070B5044684
:1010B00080F08000C0B20D46FFF75EFF46F2676029
:1010C000C6F2666055FB00F0811001EBD076C6F1E8
:1010D0004300C0B2FFF750FF40F27C00C2F20000B4
:1010E000066006EB8600A5EB400240F28C00C2F2DF
:1010F0000000026040F27800092AC2F200001AD80B
:101100008021DFE802F007170C0E050510121614F7
:1011100010210FE0002C18BF0124E1010AE040215A
:1011200008E0202106E0082104E0042102E001217A
:1011300000E002210160007800F02AF870BD000094
:1011400043F64000C4F20200016841F4003101603E
:1011500044F20840C4F2000040F2836101602D2196
:1011600041600020C4F20200016A41F4EE410162D4
:10117000016841F0A00101607047000043F20801DE
:10118000C4F20101486000BF08680006FCD4704743
:1011900080B540F21441C4F2020103220A60FFF755
:1011A000EDFF80BD40F61401C4F2020100F540706D
:1011B00008604CF2503000BF013800BFFCD1086815
:1011C00020F4007008607047B0B501380024B4EB1B
:1011D000106F18BFB0BD4EF21005CEF2000568606A
:1011E00000F014F80720AC602860B0BD4EF200108B
:1011F000CEF2000040210160704700004EF2001066
:10120000CEF200004FF48021016070474EF623506B
:10121000CEF20000F02101707047000040F214444B
:10122000C4F20204FFF7C4FEFFF718FFFFF788FFC0
:1012300040F20800C2F200000078FFF7A7FE40F27B
:101240001400C2F200000078FFF7A0FE40F20B008D
:10125000C2F200000078FFF799FE40F20C00C2F2E3
:1012600000000078FFF792FE40F20900C2F2000091
:101270000078FFF78BFE43F64400C4F202000168D9
:1012800041F48051016043F20000C4F201000168A2
:101290000160016841F07C0101600220206042F29F
:1012A000107000BF013800BFFCD142F208052020B9
:1012B000C4F20105FFF762FF0C20FFF75FFF206813
:1012C00040F0030020602020FFF756FE0C20FFF7BF
:1012D00053FE4020FFF750FE8020FFF74DFE40F206
:1012E000CC0640F2D007C2F20006C2F2000700BFEF
:1012F000286840F08040286055F8080C96ED000AF8
:1013000097ED001BBDEEC00A51EC110B10EE104A18
:1013100000F038FE01462046FFF7C8FEE8E75FEA26
:10132000400C08BF91F0000F4FEA8C234FEAC12216
:1013300043EA51514FEA1C5018BF00F5F0404FEA04
:10134000300018BF41F000415FEA6C5C00F029807A
:10135000BCF1FF3F08BF40F080407047130C06BF50
:1013600012044FF0100C4FF0000C130E04BF1202C9
:101370000CF1080C130F04BF12010CF1040C930FB5
:1013800004BF92000CF1020CD30F04BF52000CF109
:10139000010C11464FF00002A0F11F00A0EB0C0061
:1013A000704711F0004F08BF704731F000413FF423
:1013B000D5AF0B0C06BF09044FF0100C4FF0000C1A
:1013C0000B0E04BF09020CF1080C0B0F04BF09013E
:1013D0000CF1040C8B0F04BF89000CF1020CCB0F35
:1013E00004BF49000CF1010CCCF1200322FA03F3F5
:1013F00041EA030102FA0CF2A0EB0C0000F101003B
:101400007047000023F07F4720F07F4C80EA030004
:1014100000F00040ACEB070303F57C5303F1FF033E
:101420002DE9804909B44FEA144324EA03484FEAFE
:10143000154B25EA0B4E0FF2042606EB13273E78D8
:1014400003FB0667C7F5000707FB06F64FEAD6461B
:1014500006F102064FEA543707FB066CCCF1005C3C
:101460004FEA1C472CEA074C0CFB06F507FB06F479
:1014700004EB15464FEA961649085FEA320234BF7C
:1014800000204FF000404FEAD13706FB07FC4FEA3F
:101490001C4C0CFB0BF7D21B03FB0CF761EB070199
:1014A0000CFB0EF7B0EB074072EB17420CFB08F792
:1014B00034BFA2EB0742B2EB074261EB17414FEAA0
:1014C0000C444FEA910706FB07FC4FEA1C4C0CFB4F
:1014D0000BF7B0EBC74072EB573203FB0CF734BF8E
:1014E000A2EBC742B2EBC74261EB57310CFB0EF7E0
:1014F000B0EBC70072EB57720CFB08F734BFA2EBDE
:10150000C702B2EBC70261EB57714FEA816141EA52
:1015100092114FEA826242EA90124FEA806004EB35
:10152000CC04039F4FEAD13706FB07FC4FEA1C4C63
:101530000CFB0BF7D21B03FB0CF761EB07010CFB59
:101540000EF7B0EB074072EB17420CFB08F734BF05
:10155000A2EB0742B2EB074261EB17414FEA8C5511
:1015600004EB9C244FEA910706FB07FC4FEA1C4C56
:101570000CFB0BF7B0EBC74072EB573203FB0CF7D9
:1015800034BFA2EBC742B2EBC74261EB57310CFB51
:101590000EF7B0EBC70072EB57720CFB08F734BFC5
:1015A000A2EBC702B2EBC70261EB57714FEA816150
:1015B00041EA92114FEA826242EA90124FEA806059
:1015C00015EB4C2544F100044FEAD13706FB07FC2C
:1015D0004FEA1C4C0CFB0BF7D21B03FB0CF761EB27
:1015E00007010CFB0EF7B0EB074072EB17420CFB48
:1015F00008F734BFA2EB0742B2EB074261EB174199
:101600004FEA813141EA92414FEA823242EA904206
:101610004FEA80304FEA0C7615EB1C1544F10004BC
:1016200048EA03434EEA0B484FF0000EB2EB080CB9
:1016300071EB030724BF624639464EEB0E0E4FF0A6
:10164000000B0018524149414BEB0B0BB2EB080C5D
:1016500071EB03077BF1000B24BF624639464EEB6A
:101660000E0E4FF0000B0018524149414BEB0B0B93
:10167000B2EB080C71EB03077BF1000B24BF624651
:1016800039464EEB0E0E51EA020718BF46F001062E
:1016900016EB0E7655F1000254F1000103D5BDE8BA
:1016A0008901BDE80088BDE88901BDE80048B61998
:1016B000524141EB0101A3F10103704780807F7E1D
:1016C0007D7C7B7A797877767675747372717170B8
:1016D0006F6E6E6D6C6C6B6A6A696868676666656A
:1016E0006464636362616160605F5F5E5E5D5D5CF8
:1016F0005C5B5B5A5A595958585757565655555569
:101700005454535352525251515050504F4F4F4EC8
:101710004E4D4D4D4C4C4C4B4B4B4A4A4A49494916
:101720004848484747474746464645454544444458
:101730004443434343424242424141419C46002B81
:1017400030D477002BD04FEA37071CB503B44FF0E5
:1017500010004FF01001BAF1000F06D0BCF1000FDD
:10176000DCBF40F0080040F008014FF000000FBC63
:10177000BDE810400BF1010BBBF1010F08BF5FEAA0
:10178000170722BF12F1010211F101014FF00041D0
:1017900043F1000300F0004043EA00007047F9D332
:1017A0005708D0E746EA06464FEA164613F1400FBF
:1017B0001FDD13F1200FDFBF16430A46002120333F
:1017C0005B42BED0C3F1200746EA06464FEA164602
:1017D00002FA07F746EA070622FA03F2C3F12007E6
:1017E00001FA07F742EA070221FA03F14FF000037A
:1017F000A7E746EA020646EA06464FEA164646EAE2
:101800000106BCBF46EA0646360C4FF000034FF017
:1018100000024FF0000194E72DE9804C70B49A4625
:10182000934691E8380007C831EA400C48BF34EAD3
:10183000430C03D5FFF7E6FDFFF780FFF0BCBDE8E2
:10184000008C2DE9804C70B49A46934691E838009C
:1018500007C810F0804F08BF13F0804F03D100F08D
:1018600005F8FFF76BFFF0BCBDE8008C20F07F4768
:1018700023F07F4C80EA030000F0004007EB0C03EC
:10188000A3F57C53A3F1FE0392F0000F00F0B380A8
:1018900095F0000F00F077802DE901494FEA1140E3
:1018A00021EA00484FEA144624EA064700FB06FCFA
:1018B00008FB06F607FB08F818EB06484CEB164C3D
:1018C00000FB07F718EB07484CEB17404FEA124BA9
:1018D00022EA0B4E4FEA154625EA06470BFB06FCAB
:1018E0000EFB06F607FB0EFE1EEB064E4CEB164CEF
:1018F0000BFB07F71EEB074E4CEB174B18EB0B08D7
:1019000040F1000018EB0E0B58EB000840F100000E
:101910008F1A4FF000014FF000063CBFC943661B11
:1019200014BFB5EB040C00213CBFC943F61B4FEAC2
:10193000174427EA04454FEA1C472CEA074C04FBEE
:10194000076205FB07F70CFB05F616EB074642EBB3
:10195000174204FB0CFC16EB0C4642EB1C421BEB43
:10196000060658EB020241414EEA8E0E46EA9E06FA
:1019700001D5BDE80189B619524141EB0101A3F13E
:101980000103BDE801894FEA144524EA05464FEA00
:10199000114721EA074C05FB07F406FB07F70CFB90
:1019A00006F111EB074144EB174405FB0CFC11EB6E
:1019B0000C4144EB1C444FEA124722EA074C05FB5A
:1019C00007F206FB07F70CFB06F616EB074642EBA1
:1019D000174205FB0CFC16EB0C4642EB1C456A1843
:1019E00054F1000148BF7047B619524141EB010163
:1019F000A3F10103704795F0000F37D04FEA114271
:101A000021EA02464FEA144724EA074C02FB07F199
:101A100006FB07F70CFB06F414EB074441EB1741F8
:101A200002FB0CFC14EB0C4441EB1C414FEA154744
:101A300025EA074C02FB07F506FB07F70CFB06F649
:101A400016EB074645EB174502FB0CFC16EB0C4664
:101A500045EB1C42121951F1000148BF7047B619FD
:101A6000524141EB0101A3F1010370474FEA1445D4
:101A700024EA05464FEA114721EA074C05FB07F126
:101A800006FB07F70CFB06F212EB074241EB17418E
:101A900005FB0CFC12EB0C4251EB1C414FF0000615
:101AA00048BF7047921841EB0101A3F10103704751
:101AB00003B401984100009850EAC12018BF0420E7
:101AC0004A0D18BF40F0010040F2FF72B2EB515FC7
:101AD00008BF40F00200012808BF052002B070478F
:101AE00030380A2801D201207047002070470000DA
:101AF00010B500290AD00878002807D00548784496
:101B0000FFF76AF8002801D0002010BD0248784491
:101B100010BD0000CA0A0000C20A000021F0004205
:101B200001F00043A2F16052B2F5801F28BFD2F14C
:101B30007F6C0BD95FEA001C43EAC20242EB507093
:101B400018BF704728BF20F001007047B2F5801F12
:101B5000BCBF184670474FEA410C1CF5001F02D26B
:101B6000084600F0BFBC70B500F0FCFA0000008928
:101B7000FFF7F6BF4FF00040A0F58000704700006F
:101B800010B591EA030F48BF83F0004300F146838C
:101B9000841A71EB030C05D2121943EB0C03001BE2
:101BA00061EB0C014FEA1154A4EB135CDFF81CE16C
:101BB0001EEA430F18BF9EEA445F00F0748021EADA
:101BC000045123EA0E0343F48013DCF1200E32D3D8
:101BD00022FA0CFE10EB0E0023FA0CFE41EB0E0174
:101BE000CCF1200E03FA0EFE10EB0E00CCF1200E0D
:101BF00051F10001B1F5801F32D201EB045112FA0C
:101C00000EF2BDE8104058BF7047401C38BF5FEA75
:101C1000420218BF7047002814BF20F0010041F1B4
:101C200000014FEA410313F5001F38BF7047A1F1CF
:101C3000C04100F0E5BA012A43EB0302ACF1200CED
:101C4000DCF11F0E32BF4FF0000E23FA0CF310EB45
:101C5000030041EB0451B4EB115FD0D0A1EB045170
:101C600001F58011490801EB04515FEA30000ED301
:101C700050F1000038BF12FA0EFE08D1BDE8104046
:101C8000C9E7401C38BF5FEA4202CAD1C3E7BDE8DA
:101C900010404FEA410313F5001F38BF7047A1F110
:101CA000C04100F0ADBA9EEA445F08D011EA5E0F71
:101CB000BDE8104004BF01F0004100207047BDE8BE
:101CC000104070B500F04EFA64FBBE3E0000E0FF2D
:101CD0002DE9C04130B4DFF8A4C23CEA111418BFAA
:101CE0003CEA131400F0ED801CEA111481EA0305AC
:101CF00044EAD57418BF1CEA131500F0C880A4EBA1
:101D0000050404F17F7404F500344FF0004545EA02
:101D1000C12145EAC32341EA505143EA52534FEAF5
:101D2000C0204FEAC222994208BF904200F09D8035
:101D30004FEA13650FF24416765D4FEA134506FB32
:101D400005F7C7F1807706FB07F74FEAD737A7FB00
:101D500003687642A7FB06CEC8F5803838BFA8F1E5
:101D6000010807FB08E6A6FB028C4FF0000EE6FB1D
:101D700003CEDCF1000CCEF1004E38BFAEF1010E07
:101D8000A6FB0C584FF00007E6FB0E87A1FB08C628
:101D9000A0FB07CE16EB0E064FF0000545F100053F
:101DA000E1FB076515F1E04E7EBFA4F580345FEAE4
:101DB00046066D4116F1800745F100054FEA1727E9
:101DC00047EA05674FEA15254FEA0666A6F1DE46A3
:101DD000B6F1805F20D9384605EBC47124F0010CC0
:101DE00001EB0C11BCF1FE6F02D8F0BCBDE8008124
:101DF00024425CBF01F5801E9EEAC47F02D4F0BC81
:101E0000BDE80081244200F13980A1F1C041F0BC5D
:101E1000BDE8004100F0F4B94FEAD02040EA41505B
:101E20004FEAD1214FEAD22242EA43524FEAD3236A
:101E3000A7FB028607FB036605FB02661EEA0E0F80
:101E400058BFA6EB0056B6EB00564FEA520E4EEACC
:101E5000C37E18EB0E0E56EB530EBCD518EB0208E2
:101E60005E417F1C55F10005B5E74FF480154FF03A
:101E700000074FF000064FF00008ACE701F1C04149
:101E800001F000414FF00000F0BCBDE800810CEA19
:101E9000131511EA0C1F00D00CE013EA0C1F00F020
:101EA00026804FF0000081EA030101F00041F0BC00
:101EB000BDE80081F0BCBDE8004181EA030100F00B
:101EC0009FB9F0BCBDE8004170B500F04BF900BF10
:101ED000097EFC3E00F007B84FF0000081EA0301E4
:101EE00001F00041704781EA030100F089B9F0BCBC
:101EF000BDE8004122494FF000007047FFFDFBF9AB
:101F0000F7F5F4F2F0EEEDEBE9E8E6E4E3E1E0DE2C
:101F1000DDDBDAD8D7D5D4D3D1D0CFCDCCCBCAC89E
:101F2000C7C6C5C4C2C1C0BFBEBDBCBBBAB9B8B7C5
:101F3000B6B5B4B3B2B1B0AFAEADACABAAA9A8A8B8
:101F4000A7A6A5A4A3A3A2A1A09F9F9E9D9C9C9B86
:101F50009A99999897979695959493939291919031
:101F60008F8F8E8E8D8C8C8B8B8A898988888787C2
:101F70008685858484838382828181800000FF0737
:101F80000000F87F4FEA41034FEA5353A3F5806303
:101F9000D3F11E03C8BFD3F1210C0CDD4FF000427A
:101FA00042EAC12242EA505232FA03FC8CEAE17C56
:101FB000ACEBE1707047102BC4BF0020704703F5F5
:101FC000787CBCF1FF3F04D06FF0004282EA210030
:101FD000704770B500F0C6F8499224800020704721
:101FE000F2E710F0004248BF4042B0FA80F310FA26
:101FF00003F10AD0C3F11D0303F5806302EB035222
:102000004FEA415002EBD12170474FF0000070477A
:1020100070B5DFF848C11CEA111E1EBF1CEA13157B
:102020009EEA0C0F95EA0C0F00F06F8081EA030422
:102030004EEAD47EAE4421EA4C1123EA4C1341F41B
:10204000801143F48013AEF17F7EA1FB024CA0FB14
:102050000365361955EB0C05A1FB034C4CF100034D
:10206000A0FB021C16EB0C06654153F1000309426C
:1020700018BF46F0010613F4007F0BD14FEA03317D
:102080004FEA053041EA155140EA165034036FF02B
:1020900003020AE04FEAC3214FEAC52041EA555145
:1020A00040EA5650F4026FF0020202EB2E4201EBBE
:1020B000025585EACE710AD05FEA440C18BF24F0BD
:1020C000004450F1000041F1000120EAD47040F2D8
:1020D000FE7C624500D270BDA84214BF4FF0804420
:1020E0004FF04044002E08BF0024BEF1806FA8BF0F
:1020F000A1F1C041BDE8704080F2828001F1C04191
:1021000001F000414FF0000070470CEA13159EEA01
:102110000C0F18BF95EA0C0F06D081EA030E4FF0A2
:1021200000000EF0004170BD00F01CF88900013E77
:1021300000F007B800F009B84FEA430C5FEA5C5CB6
:1021400008D081EA030100F05BB84FEA410C5FEA76
:102150005C5CF6D102494FF0000070470000FF07B9
:102160000000F87F0EF1020E2EF0030E5EF8046BF5
:10217000364205D4012A43EB030515F5001F12D89A
:10218000012841EB010C1CF5001F0CD80ED14FEAC1
:10219000D17C0CEB4C0C0CF1020C15F5001F08BFA8
:1021A0004CEBD37C04E04FF0080C01E04FEAD37C09
:1021B0000CEB4C0526FA05F606F00706B6F1040C02
:1021C00006D20EEB860CBDE870404CF0010C604767
:1021D000DFE80CF0090B02024FF00041A1F50021ED
:1021E0004FF0000070BD19461046012851EB010464
:1021F00018BFD4F5001484BF002001F0004170BD69
:102200000808A0F500114FEA3101704710B591EAB6
:10221000030F48BF83F000433FF5BAAC841A71EB5B
:10222000030C07D28CF0004C121943EB0C03001B7B
:1022300061EB0C014FEA1154A4EB135CDFF8A4E14D
:102240001EEA430F18BF9EEA445F00F0B48021EA03
:10225000045123EA6E035242C3EB6E0338BF5B1E88
:10226000DCF1200E25D322FA0CFE10EB0E0043FA0F
:102270000CFE41EB0E01CCF1200E03FA0EFE10EB2A
:102280000E00CCF1200E51F1000129D401EB0451D4
:1022900012FA0EF2BDE8104058BF7047401C1CBF38
:1022A000B2F1004F704700280CBF491C20F001001C
:1022B000704712EB020E43EB030218BF4FF0010E02
:1022C0004EEA4202ACF1200CDCF11E0E56D943FA64
:1022D0000CFE10EB0E00CCF11E0E51F1FF31D5D5E6
:1022E0000EF1010E12FA0EFE404141EB010101EB2D
:1022F000445C5FEA5C5C10D901EB045110EBDE70CA
:1023000038BFBEF1004FBDE8104018BF704700282D
:102310000CBF491C20F00100704734D24FEAD42C86
:1023200024F4006411F500111BD0B1FA81F20B3ACC
:10233000A41AA41ED2F12003914030FA03F31943EA
:10234000904001EBCC7101EB0451002CBDE8104032
:10235000A8BF704701F1C04101F000414FF00000FB
:102360007047B0FA80F310FA03F102D1BDE81040D3
:102370007047E41A173C4805C90AE2E701EB04512B
:10238000BDE81040704749104FEA300001EB04519E
:10239000BDE8104002E04FF0000170474A0008BF5E
:1023A0000042F8D0B2F5001F28BF704701F000418D
:1023B0004FF0000070479EEA445F07D011EA5E0FBD
:1023C000BDE8104004BF002100207047BDE8104068
:1023D00070B5FFF7C7FE00BF40DFF63E104683F042
:1023E000004170470000E0FF43004FEAD30C4FEA82
:1023F0003C0C43401FBF40070CF1605113F0FE4FEF
:1024000070471CF0006F03D10CF0004100207047B2
:102410000CF0004343EA507040EACC0010B500F0E5
:102420000EF800BF000000924FEA0001FFF7E8BE7F
:102430004FF00041A1F500214FF0000070470EF170
:10244000020E2EF0030E5EF8044B244204D44FEA31
:102450004102B2F17F4F11D84FEA4003B3F17F4FF1
:102460000CD80ED14FEAD07C0CEB4C0C0CF1020CCA
:10247000B2F17F4F08BF4CEBD17C04E04FF0080C69
:1024800001E04FEAD17C0CEB4C0324FA03F404F096
:102490000704B4F1040C06D20EEB840CBDE8104026
:1024A0004CF0010C6047DFE80CF0070802024FF027
:1024B0000040A0F5800010BD0846420018BFD2F1D0
:1024C000807288BF00F0004010BDF1EE100A4FF698
:1024D000FF71C0F2C03120EA010040F04070E1EE2F
:1024E000100A7047FF2141EAD050C0057047FEF73F
:1024F000F1B8040000080000000000000002000124
:102500000000100002400000000000A000000000D9
:1025100005400000000000C8000000000C40000062
:102520000000409C00000000194000000020BCBEDC
:102530000000000034400000BFC91B8E00000004F2
:10254000B5400000504BCFD06607E2CF010000003D
:102550006C4100003E8251AADFEEA734010000006A
:10256000D9420000DCB5A0E23A301F97FFFFFFFF21
:10257000B4450000FD25A0C8E9A3C14FFFFFFFFF40
:10258000FF3F00000000008000000000FF3F00004F
:1025900000000080000000000000000000000000BB
:1025A0000102030406070809E425000800000020D2
:1025B00018000000D0010008FC25000818000020C9
:1025C000C0060000EC0100081C00000043000000F1
:1025D000F8FFFFFF0C0000000E0000000F000000DD
:1025E0002E0000000000003F0024F4000180C00E17
:0C25F0000600000000007A4438000000E3
:040000050800025598
:00000001FF
