:020000040800F2
:1000000090060020550200085D0200085F0200080B
:100010006102000863020008650200080000000099
:10002000000000000000000000000000670200085F
:1000300069020008000000006B020008050D0008BE
:100040006F0200086F0200086F0200086F020008CC
:100050006F0200086F0200086F0200086F020008BC
:100060006F0200086F0200086F0200086F020008AC
:100070006F0200086F0200086F0200086F0200089C
:100080006F0200086F020008650C00080000000005
:100090000000000000000000000000006F020008E7
:1000A0006F0200086F0200086F0200086F0200086C
:1000B0006F0200086F0200086F0200086F0200085C
:1000C0006F0200086F0200086F0200086F0200084C
:1000D0006F0200086F0200086F02000800000000B5
:1000E0006F0200086F0200086F02000800000000A5
:1000F0000000000000000000000000006F02000887
:10010000000000006F0200086F0200086F02000884
:1001100000000000000000000000000000000000DF
:100120006F0200086F0200086F0200086F020008EB
:100130006F02000800000000000000000000000046
:100140000000000000000000000000006F02000836
:100150006F0200086F0200086F0200086F020008BB
:100160006F0200086F02000800000000000000009D
:10017000000000000000000000000000000000007F
:10018000000000006F0200080000000000000000F6
:100190006F02000800F002F800F04CF80AA090E8A6
:1001A000000C82448344AAF10107DA4501D100F032
:1001B00041F8AFF2090EBAE80F0013F0010F18BFB3
:1001C000FB1A43F00103184788170000A817000026
:1001D000103A24BF78C878C1FAD8520724BF30C873
:1001E00030C144BF04680C60704700000023002445
:1001F00000250026103A28BF78C1FBD8520728BF37
:1002000030C148BF0B607047662901F04383642901
:1002100000F05480002070471FB501F02EFB00F065
:10022000ADFB04000020002101F09AFAE0601FBD40
:1002300010B510BD00F0A2FC1146FFF7EDFF00F075
:100240009BFE00F0C0FC03B4FFF7F2FF03BC00F01C
:1002500001FD00000948804709480047FEE7FEE726
:10026000FEE7FEE7FEE7FEE7FEE7FEE7FEE7FEE766
:1002700004480549054A064B70470000D50D0008A3
:1002800095010008900000209006002090020020B8
:10029000900200200FB41CB5074B06AA7B446946A8
:1002A0000090059800F051FB0020694600F060FBCB
:1002B0001CBC5DF814FB0000D10600002DE9F041E4
:1002C0000646002410687529314616A510D0AFF3F4
:1002D0000080002802DA404213A507E031688A074F
:1002E00001D512A502E0490704D511A5012401E0BA
:1002F000AFF3008000210A2206F1240709E0B0FBD9
:10030000F2FCB0FBF2F302FB1C00303078541846CC
:10031000491C0028F3D123462A463046BDE8F04167
:1003200000F0A7B8000000002D0000002B00000026
:10033000200000002DE9F05F894604464FF0000AD6
:10034000DFF824B1FB44C0F820A02046E1688847CC
:1003500000287DD0252806D0D4E901219047206AC5
:10036000401C2062F1E700255F462046E16888478F
:100370002028064607DB312E05D2B81910F8200CCC
:1003800008B10543F1E7A80701D525F00405C4F835
:100390001CA00027C4F818A02A2E09D0304601F06E
:1003A000D7F938B304EB8708303EC8F8186019E075
:1003B00059F8041B204604EB87029161E1688847E5
:1003C000012F064618D1E069002820DA25F0200523
:1003D0001DE0D8F8180000EB800006EB4000303834
:1003E000C8F818002046E1688847064601F0B0F9D1
:1003F0000028EED1012F0AD02E2E08D12046E16828
:1004000088477F1C0646022F45F02005C4DBA06903
:10041000002803DA404245F00105A061E80701D059
:1004200025F01005A6B1A6F14100192802D8203602
:1004300045F400654A463146204625604D46FFF7A3
:10044000E3FE60B1012807D0ED1D25F0070000E0B4
:1004500007E000F1080978E705F1040975E730467F
:100460007AE7206ABDE8F09F50150000704770479A
:1004700070472DE9F0470D4699469246044600F133
:1004800024080168880604D5E06921F01001216084
:1004900000E00120A84201DD471B00E00027A16920
:1004A0007A1902EB0900081AA0612078C00602D46C
:1004B0002046AFF30080002608E0D4E901211AF8B5
:1004C00006009047206A401C761C20624E45F4DBF3
:1004D0002078C0060AD52046AFF3008006E0D4E9B4
:1004E000012130209047206A401C2062381EA7F16D
:1004F0000107F4DC07E0D4E9012118F80500904772
:10050000206A401C2062281EA5F10105F3DC20466C
:10051000AFF300802078000602D50220BDE8F08706
:100520000120FBE72DE9FF4F0C461E464FF0FF3739
:100530008BB0D2E90001DDF860800A908A46C1F3F1
:100540000A5505B93D46002108464FF00000BAF1B2
:10055000000F00F4400005DA00EB80004FF440018A
:1005600001EA50004FEA9059B9F1010F00DDB94698
:100570000A9850EA4A000ED044F61050A5F2FF3512
:1005800045432F14B8F1000F1ED07542291E1EDD01
:10059000C9F100021CE0B8F1010F4FF0000001D0DA
:1005A000302103E0F24305E02154401CB042FBDB64
:1005B00030460022002121540B99C1F80880C1E97E
:1005C00000200FB0BDE8F08FBD1B6D1CDEE74A4672
:1005D00000DA694206A800F05BFA06AB93E8070070
:1005E00003AB83E8070050460A9900F0D1FC8DE880
:1005F0000700A0F500501F3800900398002D0ADD79
:1006000042F21F014A460844002303A903906846AA
:1006100000F03AFF09E0A0F500504A461F380023D9
:1006200003A90390684600F044FF8DE8070000042A
:10063000000C03D04FF0FF30410800E01046B8F145
:10064000000F03D00022009215461EE0751E05D44F
:1006500000F098F9303262556D1EF9D5B34601228B
:10066000084302D000227F1C04E02078302801D10A
:1006700000227F1E002A099784D01DE0112D07DA81
:1006800000F080F9303262556D1C50EA0102F5D15C
:10069000084302D00098C8B10EE00021681E05E0B2
:1006A000235C625C63542254401E491C8142F7DB88
:1006B000AB46A81B401E0990002004F80B000B98C5
:1006C000099AC0F80880C0E9002B7AE711264FF09C
:1006D000000857E72DE9F04F88460446D21D22F066
:1006E000070191B0D1E90001CDE90A0101F018F844
:1006F00002460B98C00F01D02D2007E0206881072B
:1007000001D52B2002E0202101EAC000032A099034
:1007100001D0072A05DB03464146204600F078F960
:100720000BE12078800601D5E06900E00620B8F1F1
:10073000650F814606D0B8F1660F18D0B8F1670F83
:1007400070D131E00020B9F1110F009001DB1123CD
:1007500001E009F101030AAA01A90CA8FFF7E2FED2
:10076000DDE90C70002609F10105834647E0012010
:100770004B4600904FF000470AAA01A90CA8FFF7CA
:10078000D1FEDDE90DB00C995D46002610B909F1E6
:1007900001000D18B9EB050003D4C0F1FF3609F1D3
:1007A0000105A5EB09002BE0B9F1010F01DA4FF0CB
:1007B00001090020B9F1110F0090484601DD112315
:1007C00000E003460AAA01A90CA8FFF7ABFEDDE989
:1007D0000C704D4600268346207800070AD4AB45AE
:1007E00000DA5D4601A8012D04DD411911F8011C54
:1007F000302907D04F4502DA17F1040F04DA01203F
:1008000082460FE06D1EEEE7002F02DCED1B3E443A
:1008100003E0781CA84200DD7D1CB81B00F1010A32
:100820004FF000472078000703D4AA4501DB4FF0C2
:10083000FF3A0021B7F1004F0DF143088DF8431046
:1008400024D002202B23002F01DA7F422D230A21FE
:10085000021EA0F1010000DC5FB197FBF1FC97FBE9
:10086000F1F201FB1C7C17460CF1300C08F801CDAD
:10087000EEE7A8F1010003702188090501D54521A3
:1008800000E06521A0F1010800F8011C09980FA9FA
:10089000A1EB0807FF1D00B10120411901EBEA702F
:1008A000A1693844081A401EA0612078C00602D40D
:1008B0002046AFF30080099828B1D4E90121904780
:1008C000206A401C20622078C00622D52046AFF363
:1008D00000801EE0002E04DBB34502DD01A8805D30
:1008E00000E03020D4E901219047206A401C2062BA
:1008F000761CAAF101005FEA000A0AD100F03EF876
:10090000C0680168405CD4E901219047206A401C1E
:100910002062281EA5F10105DCDC07E0D4E90121F5
:1009200018F8010B9047206A401C2062381EA7F17E
:100930000107F3DC2046AFF30080032011B041E64D
:1009400001694A1C02610878704700B58FB0CDE993
:1009500001310021059105497944CDE90310114683
:100960006846FFF7E7FC0FB000BD0000E5FFFFFFA2
:100970000A6802F8010B0A607047000000487047DF
:100980003000002030B5B0F10A0271F100034FEAE7
:10099000900E4EEA817EB0EB0E0061EB91014FEAC2
:1009A000101E4EEA017E10EB0E0041EB11114FEAD2
:1009B000102E4EEA016E10EB0E0041EB11214FEAB2
:1009C000104E4EEA014E10EB0E0041EB1141401863
:1009D00041F100014FEAD00040EA41704FEAD101F5
:1009E0004FEA810444EA907410EB800544EB010463
:1009F0006D1944EB0404521BA3414FF0000348BFA0
:100A00000A3200D530BD401C41F1000130BD00006C
:100A10002DE9F0411F46044603260168072A01F428
:100A2000006004DB08B116A505E016A503E008B1D7
:100A300015A500E015A521F010002060A069C01EDA
:100A4000A0610FB1401EA0612046AFF300804FB1FE
:100A5000D4E9012138469047206A401C2062C01C1E
:100A6000206206E0206AFAE7D4E9012115F8010BBB
:100A70009047761EF8D22046AFF30080BDE8F081A3
:100A80004E414E006E616E00494E4600696E660032
:100A90002DE9F047814616468AB0354878440DC89E
:100AA0008DE80D0032487844801C03AC0DC884E802
:100AB0000D0041F69B300844372190FBF1F290FB8A
:100AC000F1F5A5F1800501FB12041B3C02D564423F
:100AD000012000E00020DFF898A080460027FA44BB
:100AE000AAF1BE0A0EE0E0070AD03246684607EBDC
:100AF000470101230AEB810100F0DBFC8DE80700D0
:100B000064107F1C002CEED1194F7F44AE3F19E0DA
:100B1000E80715D007EB04100DF1180A90E80E0055
:100B20008AE80E00C068F04201D198190890324658
:100B3000012306A903A800F0BCFC03AB83E807006F
:100B40006D10641C002DE3D14FF00103324669465D
:100B5000B8F1000F03A802D000F096FC01E000F00D
:100B6000A8FCC9E90001C9F808200AB0BDE8F0876F
:100B7000880E000000487047100000207546FFF7FF
:100B8000F9FFAE4605006946534620F0070085464A
:100B900018B020B5FFF76CFBBDE820404FF0000611
:100BA0004FF000074FF000084FF0000BAC46ACE8E8
:100BB000C009ACE8C009ACE8C009ACE8C00921F044
:100BC00007018D46704710B50446AFF300802046FC
:100BD000BDE81040FFF737BB30B44FF0013C50F890
:100BE000042B51F8043BCCFA52F4D51A20D1FCB9AD
:100BF00050F8042B51F8043BCCFA52F4D51A17D113
:100C0000B4B950F8042B51F8043BCCFA52F4D51A7D
:100C10000ED16CB950F8042B51F8043BCCFA52F4C5
:100C2000D51A05D1002CDAD030BC4FF00000704747
:100C300029BAB1FA81F111F01801D1F120008440F4
:100C4000F2D1CA40CB4012F0FF0213F0FF0330BCD8
:100C5000D01A704701491820ABBEFEE726000200FB
:100C60007047000040F20800C2F2000090ED000A58
:100C700040F28000C2F2000080ED000A42F2000063
:100C8000C4F20100016890ED131A40F27C00C2F238
:100C9000000040F2000190ED002AC2F2000191ED47
:100CA000003A30EE020A30EE032A80EE022A40F2C9
:100CB0008C01B8EE411AC2F2000181ED001A40F237
:100CC0008801C2F2000181ED001A40F27801C2F2FF
:100CD0000001B7EE004A81ED002A40F28401C2F221
:100CE000000191ED003A34EE433A22EE033A33EE3E
:100CF000011A81ED001A34EE421A20EE010A80ED4D
:100D0000000A704710B540F27004C2F20004206877
:100D100002281AD10020206042F20800C4F201002B
:100D20000168002241F08041016040F28C00C2F273
:100D3000000090ED000A40F27400C2F2000080ED65
:100D4000000A4620002100F04FF8206801302060A2
:100D500010BD000043F60400C4F20200416801F037
:100D60000C0242F20041082AC0F2F40106D0042A23
:100D70001DD147F64001C0F27D1118E002680368FA
:100D8000520247F64002C0F27D1203F03F0358BF03
:100D90000A460168B2FBF3F20368C1F388115143BC
:100DA000C3F30142022303EB4202B1FBF2F140F232
:100DB0000402C2F200021160406841F64011C0F323
:100DC0000310C0F60001085C116821FA00F0106001
:100DD000704700004EF68850CEF20000016841F4E2
:100DE000700101607047000080B588B0492810D0BC
:100DF000462814D043281DD10878D8B10DF102023D
:100E0000013A013902F8010F887801310028F9D13F
:100E100010E016A10DF10200FFF73CFA0AE010EE17
:100E2000100A00F0B9FC02460B460EA10DF10200BB
:100E3000FFF730FA9DF8020088B144F2044C00211B
:100E4000C4F2000C0DF1020342F21072013A00BF2D
:100E5000FCD1CCF800000131585C0028F4D108B076
:100E600080BD00BF25302E31660D0A0025640D0AB5
:100E70000000000080B543F63000C4F202000721F4
:100E800001600020C4F20200016841F0030101602A
:100E9000FFF760FF40F20400C2F20000006844F671
:100EA000D351C1F26201A0FB0101880900F042F8B0
:100EB00080BD000010B543F64400C4F20200016892
:100EC00042F2040441F480710160C4F2010420681C
:100ED0002060606840F001006060606840F07C5015
:100EE00040F001006060206840F02000206000F0C9
:100EF00033F80020206310BD43F64000C4F2020026
:100F0000016841F40031016044F20840C4F200007D
:100F100040F2836101602D2141600020C4F2020093
:100F2000016A41F4EE410162016841F0A0010160F3
:100F300070470000B0B501380024B4EB106F18BF43
:100F4000B0BD4EF21005CEF20005686000F00CF85E
:100F50000720AC602860B0BD4EF20010CEF2000059
:100F60004FF48021016070474EF62350CEF200000E
:100F7000F021017070470000FFF77CFFFFF79AFF38
:100F8000FFF7BAFF42F20000C4F201000168FDE77A
:100F90005FEA400C08BF91F0000F4FEA8C234FEA44
:100FA000C12243EA51514FEA1C5018BF00F5F040EE
:100FB0004FEA300018BF41F000415FEA6C5C00F07E
:100FC0002980BCF1FF3F08BF40F080407047130C00
:100FD00006BF12044FF0100C4FF0000C130E04BFAC
:100FE00012020CF1080C130F04BF12010CF1040CD7
:100FF000930F04BF92000CF1020CD30F04BF5200F8
:101000000CF1010C11464FF00002A0F11F00A0EB03
:101010000C00704711F0004F08BF704731F00041DD
:101020003FF4D5AF0B0C06BF09044FF0100C4FF086
:10103000000C0B0E04BF09020CF1080C0B0F04BFCF
:1010400009010CF1040C8B0F04BF89000CF1020C98
:10105000CB0F04BF49000CF1010CCCF1200322FAA4
:1010600003F341EA030102FA0CF2A0EB0C0000F1D9
:101070000100704723F07F4720F07F4C80EA030097
:1010800000F00040ACEB070303F57C5303F1FF03D2
:101090002DE9804909B44FEA144324EA03484FEA92
:1010A000154B25EA0B4E0FF2042606EB13273E786C
:1010B00003FB0667C7F5000707FB06F64FEAD646AF
:1010C00006F102064FEA543707FB066CCCF1005CD0
:1010D0004FEA1C472CEA074C0CFB06F507FB06F40D
:1010E00004EB15464FEA961649085FEA320234BF10
:1010F00000204FF000404FEAD13706FB07FC4FEAD3
:101100001C4C0CFB0BF7D21B03FB0CF761EB07012C
:101110000CFB0EF7B0EB074072EB17420CFB08F725
:1011200034BFA2EB0742B2EB074261EB17414FEA33
:101130000C444FEA910706FB07FC4FEA1C4C0CFBE2
:101140000BF7B0EBC74072EB573203FB0CF734BF21
:10115000A2EBC742B2EBC74261EB57310CFB0EF773
:10116000B0EBC70072EB57720CFB08F734BFA2EB71
:10117000C702B2EBC70261EB57714FEA816141EAE6
:1011800092114FEA826242EA90124FEA806004EBC9
:10119000CC04039F4FEAD13706FB07FC4FEA1C4CF7
:1011A0000CFB0BF7D21B03FB0CF761EB07010CFBED
:1011B0000EF7B0EB074072EB17420CFB08F734BF99
:1011C000A2EB0742B2EB074261EB17414FEA8C55A5
:1011D00004EB9C244FEA910706FB07FC4FEA1C4CEA
:1011E0000CFB0BF7B0EBC74072EB573203FB0CF76D
:1011F00034BFA2EBC742B2EBC74261EB57310CFBE5
:101200000EF7B0EBC70072EB57720CFB08F734BF58
:10121000A2EBC702B2EBC70261EB57714FEA8161E3
:1012200041EA92114FEA826242EA90124FEA8060EC
:1012300015EB4C2544F100044FEAD13706FB07FCBF
:101240004FEA1C4C0CFB0BF7D21B03FB0CF761EBBA
:1012500007010CFB0EF7B0EB074072EB17420CFBDB
:1012600008F734BFA2EB0742B2EB074261EB17412C
:101270004FEA813141EA92414FEA823242EA90429A
:101280004FEA80304FEA0C7615EB1C1544F1000450
:1012900048EA03434EEA0B484FF0000EB2EB080C4D
:1012A00071EB030724BF624639464EEB0E0E4FF03A
:1012B000000B0018524149414BEB0B0BB2EB080CF1
:1012C00071EB03077BF1000B24BF624639464EEBFE
:1012D0000E0E4FF0000B0018524149414BEB0B0B27
:1012E000B2EB080C71EB03077BF1000B24BF6246E5
:1012F00039464EEB0E0E51EA020718BF46F00106C2
:1013000016EB0E7655F1000254F1000103D5BDE84D
:101310008901BDE80088BDE88901BDE80048B6192B
:10132000524141EB0101A3F10103704780807F7EB0
:101330007D7C7B7A7978777676757473727171704B
:101340006F6E6E6D6C6C6B6A6A69686867666665FD
:101350006464636362616160605F5F5E5E5D5D5C8B
:101360005C5B5B5A5A5959585857575656555555FC
:101370005454535352525251515050504F4F4F4E5C
:101380004E4D4D4D4C4C4C4B4B4B4A4A4A494949AA
:1013900048484847474747464646454545444444EC
:1013A0004443434343424242424141419C46002B15
:1013B00030D477002BD04FEA37071CB503B44FF079
:1013C00010004FF01001BAF1000F06D0BCF1000F71
:1013D000DCBF40F0080040F008014FF000000FBCF7
:1013E000BDE810400BF1010BBBF1010F08BF5FEA34
:1013F000170722BF12F1010211F101014FF0004164
:1014000043F1000300F0004043EA00007047F9D3C5
:101410005708D0E746EA06464FEA164613F1400F52
:101420001FDD13F1200FDFBF16430A4600212033D2
:101430005B42BED0C3F1200746EA06464FEA164695
:1014400002FA07F746EA070622FA03F2C3F1200779
:1014500001FA07F742EA070221FA03F14FF000030D
:10146000A7E746EA020646EA06464FEA164646EA75
:101470000106BCBF46EA0646360C4FF000034FF0AB
:1014800000024FF0000194E72DE9804C70B49A46B9
:10149000934691E8380007C831EA400C48BF34EA67
:1014A000430C03D5FFF7E6FDFFF780FFF0BCBDE876
:1014B000008C2DE9804C70B49A46934691E8380030
:1014C00007C810F0804F08BF13F0804F03D100F021
:1014D00005F8FFF76BFFF0BCBDE8008C20F07F47FC
:1014E00023F07F4C80EA030000F0004007EB0C0380
:1014F000A3F57C53A3F1FE0392F0000F00F0B3803C
:1015000095F0000F00F077802DE901494FEA114076
:1015100021EA00484FEA144624EA064700FB06FC8D
:1015200008FB06F607FB08F818EB06484CEB164CD0
:1015300000FB07F718EB07484CEB17404FEA124B3C
:1015400022EA0B4E4FEA154625EA06470BFB06FC3E
:101550000EFB06F607FB0EFE1EEB064E4CEB164C82
:101560000BFB07F71EEB074E4CEB174B18EB0B086A
:1015700040F1000018EB0E0B58EB000840F10000A2
:101580008F1A4FF000014FF000063CBFC943661BA5
:1015900014BFB5EB040C00213CBFC943F61B4FEA56
:1015A000174427EA04454FEA1C472CEA074C04FB82
:1015B000076205FB07F70CFB05F616EB074642EB47
:1015C000174204FB0CFC16EB0C4642EB1C421BEBD7
:1015D000060658EB020241414EEA8E0E46EA9E068E
:1015E00001D5BDE80189B619524141EB0101A3F1D2
:1015F0000103BDE801894FEA144524EA05464FEA94
:10160000114721EA074C05FB07F406FB07F70CFB23
:1016100006F111EB074144EB174405FB0CFC11EB01
:101620000C4144EB1C444FEA124722EA074C05FBED
:1016300007F206FB07F70CFB06F616EB074642EB34
:10164000174205FB0CFC16EB0C4642EB1C456A18D6
:1016500054F1000148BF7047B619524141EB0101F6
:10166000A3F10103704795F0000F37D04FEA114204
:1016700021EA02464FEA144724EA074C02FB07F12D
:1016800006FB07F70CFB06F414EB074441EB17418C
:1016900002FB0CFC14EB0C4441EB1C414FEA1547D8
:1016A00025EA074C02FB07F506FB07F70CFB06F6DD
:1016B00016EB074645EB174502FB0CFC16EB0C46F8
:1016C00045EB1C42121951F1000148BF7047B61991
:1016D000524141EB0101A3F1010370474FEA144568
:1016E00024EA05464FEA114721EA074C05FB07F1BA
:1016F00006FB07F70CFB06F212EB074241EB174122
:1017000005FB0CFC12EB0C4251EB1C414FF00006A8
:1017100048BF7047921841EB0101A3F101037047E4
:1017200003B401984100009850EAC12018BF04207A
:101730004A0D18BF40F0010040F2FF72B2EB515F5A
:1017400008BF40F00200012808BF052002B0704722
:1017500030380A2801D2012070470020704700006D
:1017600010B500290AD00878002807D00548784429
:10177000FFF732FA002801D0002010BD024878445B
:1017800010BD000002020000FA0100000808A0F5E8
:1017900000114FEA3101704743004FEAD30C4FEA82
:1017A0003C0C43401FBF40070CF1605113F0FE4F4B
:1017B00070471CF0006F03D10CF00041002070470F
:1017C0000CF0004343EA507040EACC0010B500F042
:1017D0000EF800BF000000924FEA0001FFF7D6BFED
:1017E0004FF00041A1F500214FF0000070470EF1CD
:1017F000020E2EF0030E5EF8044B244204D44FEA8E
:101800004102B2F17F4F11D84FEA4003B3F17F4F4D
:101810000CD80ED14FEAD07C0CEB4C0C0CF1020C26
:10182000B2F17F4F08BF4CEBD17C04E04FF0080CC5
:1018300001E04FEAD17C0CEB4C0324FA03F404F0F2
:101840000704B4F1040C06D20EEB840CBDE8104082
:101850004CF0010C6047DFE80CF0070802024FF083
:101860000040A0F5800010BD0846420018BFD2F12C
:10187000807288BF00F0004010BDF1EE100A4FF6F4
:10188000FF71C0F2C03120EA010040F04070E1EE8B
:10189000100A7047FEF71EBF040000080000000099
:1018A00000000002000100001000000002400000E3
:1018B000000000A00000000005400000000000C87B
:1018C000000000000C4000000000409C00000000F0
:1018D000194000000020BCBE0000000034400000A1
:1018E000BFC91B8E00000004B5400000504BCFD094
:1018F0006607E2CF010000006C4100003E8251AA61
:10190000DFEEA73401000000D9420000DCB5A0E200
:101910003A301F97FFFFFFFFB4450000FD25A0C828
:10192000E9A3C14FFFFFFFFFFF3F00000000008061
:1019300000000000FF3F00000000008000000000E9
:10194000000000000000000001020304060708096F
:101950008C190008000000200C000000D0010008D5
:10196000981900081000002080060000EC01000813
:101970001C00000043000000F8FFFFFF0C00000007
:101980000E0000000F0000002E0000000000003FCD
:081990000024F40000007A4479
:040000050800025598
:00000001FF
