:020000040800F2
:1000000068060020350200083D0200083F02000893
:1000100041020008430200084502000800000000F9
:10002000000000000000000000000000470200087F
:1000300049020008000000004B020008F10200081D
:100040004F0200084F0200084F0200084F0200084C
:100050004F0200084F0200084F0200084F0200083C
:100060004F0200084F0200084F0200084F0200082C
:100070004F0200084F0200084F0200084F0200081C
:100080004F0200084F0200084F0200080000000065
:100090000000000000000000000000004F02000807
:1000A0004F0200084F0200084F0200084F020008EC
:1000B0004F0200084F0200084F0200084F020008DC
:1000C0004F0200084F0200084F0200084F020008CC
:1000D0004F0200084F0200084F0200080000000015
:1000E0004F0200084F0200084F0200080000000005
:1000F0000000000000000000000000004F020008A7
:10010000000000004F0200084F0200084F020008E4
:1001100000000000000000000000000000000000DF
:100120004F0200084F0200084F0200084F0200086B
:100130004F02000800000000000000000000000066
:100140000000000000000000000000004F02000856
:100150004F0200084F0200084F0200084F0200083B
:100160004F0200084F0200080000000000000000DD
:10017000000000000000000000000000000000007F
:10018000000000004F020008000000000000000016
:100190004F02000800F002F800F03CF80AA090E8D6
:1001A000000C82448344AAF10107DA4501D100F032
:1001B00031F8AFF2090EBAE80F0013F0010F18BFC3
:1001C000FB1A43F001031847700200009002000080
:1001D000103A24BF78C878C1FAD8520724BF30C873
:1001E00030C144BF04680C60704700000023002445
:1001F00000250026103A28BF78C1FBD8520728BF37
:1002000030C148BF0B6070471FB500F0FFF81FBD3D
:1002100010B510BD00F036F81146FFF7F5FF00F0FD
:10022000D5F800F054F803B4FFF7F2FF03BC00F078
:1002300057F800000948804709480047FEE7FEE7F5
:10024000FEE7FEE7FEE7FEE7FEE7FEE7FEE7FEE786
:1002500004480549054A064B70470000850300081D
:100260009501000868000020680600206802002050
:1002700068020020704770477047000000487047D0
:10028000080000207546FFF7F9FFAE4605006946F5
:10029000534620F00700854618B020B5FFF7D8FF79
:1002A000BDE820404FF000064FF000074FF0000877
:1002B0004FF0000BAC46ACE8C009ACE8C009ACE8B4
:1002C000C009ACE8C00921F007018D46704710B5A0
:1002D0000446AFF300802046BDE81040FFF7A3BFFF
:1002E00001491820ABBEFEE726000200704700005F
:1002F0001420C4F202000168012222EA0101016017
:100300007047000043F60400C4F20200416801F0A7
:100310000C0242F20041082AC0F2F40106D0042A7D
:100320001DD147F64001C0F27D1118E00268036854
:10033000520247F64002C0F27D1203F03F0358BF5D
:100340000A460168B2FBF3F20368C1F38811514316
:10035000C3F30142022303EB4202B1FBF2F140F28C
:100360000002C2F200021160406840F22641C0F370
:100370000310C0F60001085C116821FA00F010605B
:10038000704700004EF68850CEF20000016841F43C
:100390007001016070470000B0B501380024B4EB73
:1003A000106F18BFB0BD4EF21005CEF200056860A8
:1003B00000F004F80720AC602860B0BD4EF6235072
:1003C000CEF20000F02101707047000043F63000CB
:1003D000C4F20200072101600020C4F2020001689B
:1003E00041F001010160FFF78DFF40F20000C2F211
:1003F0000000006848F21F51C5F2EB11A0FB01019B
:100400004809FFF7C9FF00BF00BFFDE7F1EE100A82
:100410004FF6FF71C0F2C03120EA010040F0407099
:10042000E1EE100A70470000000000000000010229
:100430000304060708090000580400080000002013
:1004400004000000D00100085C040008080000203F
:0C04500060060000EC0100080024F4002D
:0400000508000235B8
:00000001FF
