:020000040800F2
:1000000070060020190200082102000823020008DF
:10001000250200082702000829020008000000004D
:100020000000000000000000000000002B0200089B
:100030002D020008000000002F0200083102000815
:1000400033020008330200083302000833020008BC
:1000500033020008330200083302000833020008AC
:10006000330200083302000833020008330200089C
:10007000330200083302000833020008330200088C
:1000800033020008330200083302000800000000B9
:100090000000000000000000000000003302000823
:1000A000330200083302000833020008330200085C
:1000B00033020008E9020008610300083302000867
:1000C000330200083302000833020008330200083C
:1000D0003302000833020008330200080000000069
:1000E0003302000833020008330200080000000059
:1000F00000000000000000000000000033020008C3
:100100000000000033020008330200083302000838
:1001100000000000000000000000000000000000DF
:1001200033020008330200083302000833020008DB
:100130003302000800000000000000000000000082
:100140000000000000000000000000003302000872
:1001500033020008330200083302000833020008AB
:100160003302000833020008000000000000000015
:10017000000000000000000000000000000000007F
:100180000000000033020008000000000000000032
:100190003302000800F002F800F02EF80AA090E800
:1001A000000C82448344AAF10107DA4501D100F032
:1001B00023F8AFF2090EBAE80F0013F0010F18BFD1
:1001C000FB1A43F001031847CC060000DC060000D0
:1001D0000023002400250026103A28BF78C1FBD850
:1001E000520728BF30C148BF0B6070471FB500F0F1
:1001F0003EFB1FBD10B510BD00F036F81146FFF7ED
:10020000F5FF00F02BF900F054F803B4FFF7F2FF0C
:1002100003BC00F057F80000094880470948004730
:10022000FEE7FEE7FEE7FEE7FEE7FEE7FEE7FEE7A6
:10023000FEE7FEE704480549054A064B7047000003
:10024000D50200089501000870000020700600200B
:100250007002002070020020704770477047000055
:1002600000487047000000207546FFF7F9FFAE46D2
:1002700005006946534620F00700854618B020B5B2
:10028000FFF7D8FFBDE820404FF000064FF0000711
:100290004FF000084FF0000BAC46ACE8C009ACE8EA
:1002A000C009ACE8C009ACE8C00921F007018D46DF
:1002B000704710B50446AFF300802046BDE81040FB
:1002C000FFF7A3BF01491820ABBEFEE726000200DE
:1002D000704700004EF68850CEF20000016841F4ED
:1002E000700101607047000080B540F21041C4F217
:1002F0000001086820F0040008601020C4F2020029
:100300000268486A52061ED440F26802C2F2000235
:100310001388C01A10804A6800B242F00102012816
:100320004A60B8BF80BD00F037FA9FED0B0B53EC6D
:10033000102B00F0D7F800F0A3F840F26401C2F2ED
:100340000001086080BD40F26801C2F2000108802F
:1003500080BD00BF00BF00BF0000000000004D4096
:1003600040F61000C4F2000001686FF0010221F0B5
:10037000010101601020C4F20200016862EA01017B
:10038000416040F26000C2F200000168013101608A
:10039000704700000020C4F2020001684FF00F0C0B
:1003A00041F005010160816844F6206341F00501D8
:1003B0008160C168012241F00501C160016841F41A
:1003C00000510160016A41F00071016243F6400191
:1003D000C4F20201086840F00200086040F20040E8
:1003E000C4F20000C0F828C0C3628261026A42F011
:1003F0000B020262C26842F00202C260026842F06E
:10040000010202600A6842F004020A6040F60C0130
:10041000C4F20001C1F81CC00B624A6941F2111319
:100420001A434A61CA6846F260031A43CA60D0F8A8
:10043000002442F00102C0F80024086840F00100E6
:100440000860704700F01F00012101FA00F04EF231
:100450000011CEF2000108607047000043F6300042
:10046000C4F20200016841F0070101601D20FFF79E
:10047000E9FF1E20FFF7E6FFFFF78CFF00BFFDE757
:1004800021F0004201F00043A2F16052B2F5801F5A
:1004900028BFD2F17F6C0BD95FEA001C43EAC2028D
:1004A00042EB507018BF704728BF20F00100704722
:1004B000B2F5801FBCBF184670474FEA410C1CF5CF
:1004C000001F02D2084600F0DFB970B500F07BF9DA
:1004D00000000089FFF7F6BF4FF00040A0F5800054
:1004E000704700002DE9C04130B4DFF8A4C23CEAF7
:1004F000111418BF3CEA131400F0ED801CEA11142B
:1005000081EA030544EAD57418BF1CEA131500F00C
:10051000C880A4EB050404F17F7404F500344FF0A7
:10052000004545EAC12145EAC32341EA505143EA67
:1005300052534FEAC0204FEAC222994208BF90426C
:1005400000F09D804FEA13650FF24416765D4FEA86
:10055000134506FB05F7C7F1807706FB07F74FEA5F
:10056000D737A7FB03687642A7FB06CEC8F58038CD
:1005700038BFA8F1010807FB08E6A6FB028C4FF084
:10058000000EE6FB03CEDCF1000CCEF1004E38BFCE
:10059000AEF1010EA6FB0C584FF00007E6FB0E87EC
:1005A000A1FB08C6A0FB07CE16EB0E064FF0000518
:1005B00045F10005E1FB076515F1E04E7EBFA4F5AE
:1005C00080345FEA46066D4116F1800745F100056B
:1005D0004FEA172747EA05674FEA15254FEA0666EF
:1005E000A6F1DE46B6F1805F20D9384605EBC4712E
:1005F00024F0010C01EB0C11BCF1FE6F02D8F0BC31
:10060000BDE8008124425CBF01F5801E9EEAC47FE4
:1006100002D4F0BCBDE80081244200F13980A1F190
:10062000C041F0BCBDE8004100F01BB94FEAD0204A
:1006300040EA41504FEAD1214FEAD22242EA4352E6
:100640004FEAD323A7FB028607FB036605FB02667E
:100650001EEA0E0F58BFA6EB0056B6EB00564FEA47
:10066000520E4EEAC37E18EB0E0E56EB530EBCD55F
:1006700018EB02085E417F1C55F10005B5E74FF409
:1006800080154FF000074FF000064FF00008ACE770
:1006900001F1C04101F000414FF00000F0BCBDE8A5
:1006A00000810CEA131511EA0C1F00D00CE013EACC
:1006B0000C1F00F026804FF0000081EA030101F0DA
:1006C0000041F0BCBDE80081F0BCBDE8004181EA1A
:1006D000030100F0C6B8F0BCBDE8004170B500F001
:1006E00072F800BF097EFC3E00F007B84FF0000032
:1006F00081EA030101F00041704781EA030100F043
:10070000B0B8F0BCBDE8004122494FF0000070478E
:10071000FFFDFBF9F7F5F4F2F0EEEDEBE9E8E6E4C6
:10072000E3E1E0DEDDDBDAD8D7D5D4D3D1D0CFCD4D
:10073000CCCBCAC8C7C6C5C4C2C1C0BFBEBDBCBB86
:10074000BAB9B8B7B6B5B4B3B2B1B0AFAEADACAB81
:10075000AAA9A8A8A7A6A5A4A3A3A2A1A09F9F9E5B
:100760009D9C9C9B9A99999897979695959493930D
:10077000929191908F8F8E8E8D8C8C8B8B8A8989A4
:100780008888878786858584848383828281818027
:100790000000FF070000F87F10F0004248BF404211
:1007A000B0FA80F310FA03F10AD0C3F11D0303F588
:1007B000806302EB03524FEA415002EBD1217047B4
:1007C0004FF0000070470EF1020E2EF0030E5EF89F
:1007D000046B364205D4012A43EB030515F5001FCF
:1007E00012D8012841EB010C1CF5001F0CD80ED1CA
:1007F0004FEAD17C0CEB4C0C0CF1020C15F5001FF0
:1008000008BF4CEBD37C04E04FF0080C01E04FEA4A
:10081000D37C0CEB4C0526FA05F606F00706B6F17C
:10082000040C06D20EEB860CBDE870404CF0010CB7
:100830006047DFE80CF0090B02024FF00041A1F520
:1008400000214FF0000070BD19461046012851EB01
:10085000010418BFD4F5001484BF002001F000414A
:1008600070BD0808A0F500114FEA31017047F1EEA4
:10087000100A4FF6FF71C0F2C03120EA010040F0CB
:100880004070E1EE100A7047FF2141EAD050C005E8
:1008900070470000A4080008000000207006000057
:0408A000D00100087B
:0400000508000219D4
:00000001FF
