:020000040800F2
:100000006806002039020008410200084302000887
:1000100045020008470200084902000800000000ED
:100020000000000000000000000000004B0200087B
:100030004D020008000000004F02000851020008B5
:10004000530200085302000853020008530200083C
:10005000530200085302000853020008530200082C
:10006000530200085302000853020008530200081C
:10007000530200085302000853020008530200080C
:100080005302000853020008530200080000000059
:100090000000000000000000000000005302000803
:1000A00053020008530200085302000853020008DC
:1000B00053020008610C0008D90C00085302000824
:1000C00053020008530200085302000853020008BC
:1000D0005302000853020008530200080000000009
:1000E00053020008530200085302000800000000F9
:1000F00000000000000000000000000053020008A3
:1001000000000000530200085302000853020008D8
:1001100000000000000000000000000000000000DF
:10012000530200085302000853020008530200085B
:100130005302000800000000000000000000000062
:100140000000000000000000000000005302000852
:10015000530200085302000853020008530200082B
:1001600053020008530200080000000000000000D5
:10017000000000000000000000000000000000007F
:100180000000000053020008000000000000000012
:100190005302000800F002F800F03EF80AA090E8D0
:1001A000000C82448344AAF10107DA4501D100F032
:1001B00033F8AFF2090EBAE80F0013F0010F18BFC1
:1001C000FB1A43F001031847181E0000281E000008
:1001D0000023002400250026103A28BF78C1FBD850
:1001E000520728BF30C148BF0B607047662901F035
:1001F000B285642900F05480002070471FB501F0DB
:1002000098FD00F0ADFB04000020002101F012FB7E
:10021000E0601FBD10B510BD00F0A2FC1146FFF755
:10022000EDFF00F0FFFE00F0C0FC03B4FFF7F2FFAB
:1002300003BC00F003FD000009488047094800475F
:10024000FEE7FEE7FEE7FEE7FEE7FEE7FEE7FEE786
:10025000FEE7FEE704480549054A064B70470000E3
:100260004D0C000895010008680000206806002079
:1002700068020020680200200FB41CB5074B06AAD4
:100280007B4469460090059800F051FB00206946C8
:1002900000F060FB1CBC5DF814FB0000D106000000
:1002A0002DE9F0410646002410687529314616A54F
:1002B00010D0AFF30080002802DA404213A507E017
:1002C00031688A0701D512A502E0490704D511A5B6
:1002D000012401E0AFF3008000210A2206F1240787
:1002E00009E0B0FBF2FCB0FBF2F302FB1C00303083
:1002F00078541846491C0028F3D123462A46304634
:10030000BDE8F04100F0A7B8000000002D0000009B
:100310002B000000200000002DE9F05F8946044614
:100320004FF0000ADFF824B1FB44C0F820A02046BB
:10033000E168884700287DD0252806D0D4E901212E
:100340009047206A401C2062F1E700255F46204666
:10035000E16888472028064607DB312E05D2B81908
:1003600010F8200C08B10543F1E7A80701D525F0E6
:100370000405C4F81CA00027C4F818A02A2E09D030
:10038000304601F04FFA38B304EB8708303EC8F826
:10039000186019E059F8041B204604EB87029161AC
:1003A000E1688847012F064618D1E069002820DA65
:1003B00025F020051DE0D8F8180000EB800006EBC2
:1003C00040003038C8F818002046E16888470646E3
:1003D00001F028FA0028EED1012F0AD02E2E08D1E4
:1003E0002046E16888477F1C0646022F45F020051D
:1003F000C4DBA069002803DA404245F00105A06192
:10040000E80701D025F01005A6B1A6F14100192892
:1004100002D8203645F400654A463146204625601C
:100420004D46FFF7E3FE60B1012807D0ED1D25F032
:10043000070000E007E000F1080978E705F104098A
:1004400075E730467AE7206ABDE8F09F2E1A000073
:100450007047704770472DE9F0470D469946924620
:10046000044600F124080168880604D5E06921F0FB
:100470001001216000E00120A84201DD471B00E0DF
:100480000027A1697A1902EB0900081AA0612078F7
:10049000C00602D42046AFF30080002608E0D4E96D
:1004A00001211AF806009047206A401C761C206241
:1004B0004E45F4DB2078C0060AD52046AFF3008015
:1004C00006E0D4E9012130209047206A401C2062D8
:1004D000381EA7F10107F4DC07E0D4E9012118F880
:1004E00005009047206A401C2062281EA5F10105E6
:1004F000F3DC2046AFF300802078000602D502200E
:10050000BDE8F0870120FBE72DE9FF4F0C461E46B2
:100510004FF0FF378BB0D2E90001DDF860800A9020
:100520008A46C1F30A5505B93D46002108464FF0F9
:100530000000BAF1000F00F4400005DA00EB800083
:100540004FF4400101EA50004FEA9059B9F1010F10
:1005500000DDB9460A9850EA4A000ED044F6105021
:10056000A5F2FF3545432F14B8F1000F1ED0754298
:10057000291E1EDDC9F100021CE0B8F1010F4FF089
:10058000000001D0302103E0F24305E02154401C7B
:10059000B042FBDB30460022002121540B99C1F808
:1005A0000880C1E900200FB0BDE8F08FBD1B6D1CB5
:1005B000DEE74A4600DA694206A800F05BFA06ABBD
:1005C00093E8070003AB83E8070050460A9900F060
:1005D00049FD8DE80700A0F500501F3800900398F2
:1005E000002D0ADD42F21F014A460844002303A9F8
:1005F0000390684600F0B2FF09E0A0F500504A46BB
:100600001F38002303A90390684600F0BCFF8DE863
:1006100007000004000C03D04FF0FF30410800E059
:100620001046B8F1000F03D00022009215461EE0DC
:10063000751E05D400F098F9303262556D1EF9D55B
:10064000B3460122084302D000227F1C04E0207838
:10065000302801D100227F1E002A099784D01DE096
:10066000112D07DA00F080F9303262556D1C50EA26
:100670000102F5D1084302D00098C8B10EE0002174
:10068000681E05E0235C625C63542254401E491CD2
:100690008142F7DBAB46A81B401E0990002004F8FE
:1006A0000B000B98099AC0F80880C0E9002B7AE784
:1006B00011264FF0000857E72DE9F04F8846044611
:1006C000D21D22F0070191B0D1E90001CDE90A0164
:1006D00001F090F802460B98C00F01D02D2007E0E2
:1006E0002068810701D52B2002E0202101EAC0000B
:1006F000032A099001D0072A05DB0346414620461C
:1007000000F078F90BE12078800601D5E06900E07F
:100710000620B8F1650F814606D0B8F1660F18D0F3
:10072000B8F1670F70D131E00020B9F1110F0090DE
:1007300001DB112301E009F101030AAA01A90CA8B8
:10074000FFF7E2FEDDE90C70002609F101058346A2
:1007500047E001204B4600904FF000470AAA01A94C
:100760000CA8FFF7D1FEDDE90DB00C995D4600261F
:1007700010B909F101000D18B9EB050003D4C0F15F
:10078000FF3609F10105A5EB09002BE0B9F1010FD6
:1007900001DA4FF001090020B9F1110F009048462D
:1007A00001DD112300E003460AAA01A90CA8FFF706
:1007B000ABFEDDE90C704D4600268346207800072D
:1007C0000AD4AB4500DA5D4601A8012D04DD4119CC
:1007D00011F8011C302907D04F4502DA17F1040F38
:1007E00004DA012082460FE06D1EEEE7002F02DCE6
:1007F000ED1B3E4403E0781CA84200DD7D1CB81BC5
:1008000000F1010A4FF000472078000703D4AA4501
:1008100001DB4FF0FF3A0021B7F1004F0DF1430823
:100820008DF8431024D002202B23002F01DA7F42C1
:100830002D230A21021EA0F1010000DC5FB197FB0D
:10084000F1FC97FBF1F201FB1C7C17460CF1300C1C
:1008500008F801CDEEE7A8F1010003702188090531
:1008600001D5452100E06521A0F1010800F8011C37
:1008700009980FA9A1EB0807FF1D00B1012041193C
:1008800001EBEA70A1693844081A401EA061207883
:10089000C00602D42046AFF30080099828B1D4E9FD
:1008A00001219047206A401C20622078C00622D592
:1008B0002046AFF300801EE0002E04DBB34502DDCE
:1008C00001A8805D00E03020D4E901219047206A32
:1008D000401C2062761CAAF101005FEA000A0AD1DE
:1008E00000F03EF8C0680168405CD4E901219047FF
:1008F000206A401C2062281EA5F10105DCDC07E00F
:10090000D4E9012118F8010B9047206A401C2062AD
:10091000381EA7F10107F3DC2046AFF30080032067
:1009200011B041E601694A1C02610878704700B5C0
:100930008FB0CDE901310021059105497944CDE918
:10094000031011466846FFF7E7FC0FB000BD00003A
:10095000E5FFFFFF0A6802F8010B0A60704700001C
:10096000004870472000002030B5B0F10A0271F154
:1009700000034FEA900E4EEA817EB0EB0E0061EB71
:1009800091014FEA101E4EEA017E10EB0E0041EB82
:1009900011114FEA102E4EEA016E10EB0E0041EBE2
:1009A00011214FEA104E4EEA014E10EB0E0041EBC2
:1009B0001141401841F100014FEAD00040EA417076
:1009C0004FEAD1014FEA810444EA907410EB8005AC
:1009D00044EB01046D1944EB0404521BA3414FF096
:1009E000000348BF0A3200D530BD401C41F1000170
:1009F00030BD00002DE9F0411F4604460326016882
:100A0000072A01F4006004DB08B116A505E016A56D
:100A100003E008B115A500E015A521F01000206045
:100A2000A069C01EA0610FB1401EA0612046AFF3B7
:100A300000804FB1D4E9012138469047206A401C1C
:100A40002062C01C206206E0206AFAE7D4E9012196
:100A500015F8010B9047761EF8D22046AFF30080C0
:100A6000BDE8F0814E414E006E616E00494E460079
:100A7000696E66002DE9F047814616468AB0354812
:100A800078440DC88DE80D0032487844801C03ACD2
:100A90000DC884E80D0041F69B300844372190FBD7
:100AA000F1F290FBF1F5A5F1800501FB12041B3C6E
:100AB00002D56442012000E00020DFF898A08046C3
:100AC0000027FA44AAF1BE0A0EE0E0070AD0324637
:100AD000684607EB470101230AEB810100F053FD53
:100AE0008DE8070064107F1C002CEED1194F7F4465
:100AF000AE3F19E0E80715D007EB04100DF1180A16
:100B000090E80E008AE80E00C068F04201D1981902
:100B100008903246012306A903A800F034FD03AB78
:100B200083E807006D10641C002DE3D14FF0010332
:100B300032466946B8F1000F03A802D000F00EFD5E
:100B400001E000F020FDC9E90001C9F808200AB061
:100B5000BDE8F087641300000048704700000020E3
:100B60007546FFF7F9FFAE4605006946534620F08B
:100B70000700854618B020B5FFF76CFBBDE82040A4
:100B80004FF000064FF000074FF000084FF0000B49
:100B9000AC46ACE8C009ACE8C009ACE8C009ACE8B8
:100BA000C00921F007018D46704710B50446AFF328
:100BB00000802046BDE81040FFF737BB0000000072
:100BC00030B44FF0013C50F8042B51F8043BCCFA00
:100BD00052F4D51A20D1FCB950F8042B51F8043B3B
:100BE000CCFA52F4D51A17D1B4B950F8042B51F8F5
:100BF000043BCCFA52F4D51A0ED16CB950F8042B40
:100C000051F8043BCCFA52F4D51A05D1002CDAD0B5
:100C100030BC4FF00000704729BAB1FA81F111F0F1
:100C20001801D1F120008440F2D1CA40CB4012F02B
:100C3000FF0213F0FF0330BCD01A7047014918209F
:100C4000ABBEFEE726000200704700004EF688505B
:100C5000CEF20000016841F47001016070470000AD
:100C600080B540F21041C4F20001086820F0040091
:100C700008601020C4F202000268486A52061ED4BE
:100C800040F26402C2F200021388C01A10804A685F
:100C900000B242F0010201284A60B8BF80BD00F0F6
:100CA0006BFF9FED0B0B53EC102B00F00BFE00F0D5
:100CB000D7FD40F26001C2F20001086080BD40F241
:100CC0006401C2F20001088080BD00BF00BF00BF08
:100CD0000000000000004D4040F61000C4F200008B
:100CE00001686FF0010221F0010101601020C4F2DF
:100CF0000200016862EA01014160704710B50446D4
:100D000000F034F900F0FEF8012000F053F948F249
:100D1000A060C0F2010000BF013800BFFCD121205B
:100D200000F036F9204600F033F9222000F030F9C7
:100D30000C2000F02DF910BD80B543F63000C4F250
:100D40000200016841F0070101601D2000F05EF91A
:100D50001E2000F05BF9D520FFF7D0FF00F03CF833
:100D600080BD000070B59AB01D461646032909D013
:100D7000022912D001291AD1024616A101A8FFF7B3
:100D80007BFA14E010EE100A00F062FF02460B46F8
:100D90000CA101A8FFF770FA09E010EE100A00F0AC
:100DA00057FF02460B4609A101A8FFF765FA002488
:100DB00029B232B201AB0020009400F065F81AB0FD
:100DC00070BD00BF25302E326600000025302E3168
:100DD00066000000256400000020C4F202000168E3
:100DE0004FF00F0C41F005010160816844F620636B
:100DF00041F005018160C168012241F00501C16037
:100E0000016841F400510160016A41F00071016222
:100E100043F64001C4F20201086840F00200086095
:100E200040F20040C4F20000C0F828C0C3628261F2
:100E3000026A42F00B020262C26842F00202C26021
:100E4000026842F0010202600A6842F004020A608D
:100E500040F60C01C4F20001C1F81CC00B624A69E3
:100E600041F211131A434A61CA6846F260031A43F9
:100E7000CA60D0F8002442F00102C0F800240868DB
:100E800040F00100086070472DE9F041069898464F
:100E900015460E4660B10020002100F099F84FF48D
:100EA000FC7400BF002000F073F8013CFAD100E0B0
:100EB00000BF3046294600F08BF898F80000002863
:100EC00008BFBDE8F08141F600660025C0F60006C7
:100ED000474600BF002400BF387800EB8000304454
:100EE000204410F8A00C00F053F80134052CF3D185
:100EF000013518F8050008EB05070028EAD1BDE820
:100F0000F081000043F64400C4F20200016841F49D
:100F10008051016043F20000C4F2010001680160E9
:100F2000016841F030010160016841F00301016096
:100F3000016821F480610160016821F08001016095
:100F4000016821F400610160016841F00401016061
:100F5000016841F400710160016841F48071016031
:100F6000016841F0400101607047000040F200401C
:100F7000C4F2020001684AF6A52211430160002173
:100F8000C16045F20001C0F25501016270470000E6
:100F900043F20C01C4F201010A680860012000BF9D
:100FA000013800BFFCD000BF51F8040C0006FBD490
:100FB0007047000040F21841C4F202010A684FF481
:100FC0000033002818BF022342EA0300086070477C
:100FD00070B540F21446C4F202060C46316805466C
:100FE00001F0020030602020FFF7D2FF45F0400002
:100FF000C0B2FFF7CDFF44F08000C0B2FFF7C8FFDA
:10100000306840F00100306070BD000000F01F004B
:10101000012101FA00F04EF20011CEF20001086049
:101020007047000082B0FFF787FE01240AA3012069
:10103000002100220094FFF727FF40F26004C2F273
:10104000000400BF94ED000A0020022100220223C8
:10105000FFF788FEF6E700BF44697374616E636949
:10106000610000005FEA400C08BF91F0000F4FEAFA
:101070008C234FEAC12243EA51514FEA1C5018BF5A
:1010800000F5F0404FEA300018BF41F000415FEA40
:101090006C5C00F02980BCF1FF3F08BF40F080404D
:1010A0007047130C06BF12044FF0100C4FF0000CE9
:1010B000130E04BF12020CF1080C130F04BF12012F
:1010C0000CF1040C930F04BF92000CF1020CD30F2F
:1010D00004BF52000CF1010C11464FF00002A0F1C8
:1010E0001F00A0EB0C00704711F0004F08BF7047C5
:1010F00031F000413FF4D5AF0B0C06BF09044FF0AF
:10110000100C4FF0000C0B0E04BF09020CF1080C80
:101110000B0F04BF09010CF1040C8B0F04BF8900F5
:101120000CF1020CCB0F04BF49000CF1010CCCF107
:10113000200322FA03F341EA030102FA0CF2A0EBC6
:101140000C0000F10100704723F07F4720F07F4C36
:1011500080EA030000F00040ACEB070303F57C538A
:1011600003F1FF032DE9804909B44FEA144324EA4F
:1011700003484FEA154B25EA0B4E0FF2042606EB07
:1011800013273E7803FB0667C7F5000707FB06F643
:101190004FEAD64606F102064FEA543707FB066CC3
:1011A000CCF1005C4FEA1C472CEA074C0CFB06F51F
:1011B00007FB06F404EB15464FEA961649085FEA6A
:1011C000320234BF00204FF000404FEAD13706FB17
:1011D00007FC4FEA1C4C0CFB0BF7D21B03FB0CF774
:1011E00061EB07010CFB0EF7B0EB074072EB174207
:1011F0000CFB08F734BFA2EB0742B2EB074261EBEE
:1012000017414FEA0C444FEA910706FB07FC4FEAEF
:101210001C4C0CFB0BF7B0EBC74072EB573203FBD7
:101220000CF734BFA2EBC742B2EBC74261EB5731B8
:101230000CFB0EF7B0EBC70072EB57720CFB08F714
:1012400034BFA2EBC702B2EBC70261EB57714FEAA2
:10125000816141EA92114FEA826242EA90124FEABA
:10126000806004EBCC04039F4FEAD13706FB07FCF8
:101270004FEA1C4C0CFB0BF7D21B03FB0CF761EB8A
:1012800007010CFB0EF7B0EB074072EB17420CFBAB
:1012900008F734BFA2EB0742B2EB074261EB1741FC
:1012A0004FEA8C5504EB9C244FEA910706FB07FCA0
:1012B0004FEA1C4C0CFB0BF7B0EBC74072EB5732FC
:1012C00003FB0CF734BFA2EBC742B2EBC74261EBA2
:1012D00057310CFB0EF7B0EBC70072EB57720CFBEB
:1012E00008F734BFA2EBC702B2EBC70261EB57713C
:1012F0004FEA816141EA92114FEA826242EA90121A
:101300004FEA806015EB4C2544F100044FEAD137D9
:1013100006FB07FC4FEA1C4C0CFB0BF7D21B03FB34
:101320000CF761EB07010CFB0EF7B0EB074072EB1B
:1013300017420CFB08F734BFA2EB0742B2EB07429F
:1013400061EB17414FEA813141EA92414FEA823223
:1013500042EA90424FEA80304FEA0C7615EB1C15BA
:1013600044F1000448EA03434EEA0B484FF0000EF4
:10137000B2EB080C71EB030724BF624639464EEB13
:101380000E0E4FF0000B0018524149414BEB0B0B76
:10139000B2EB080C71EB03077BF1000B24BF624634
:1013A00039464EEB0E0E4FF0000B001852414941EA
:1013B0004BEB0B0BB2EB080C71EB03077BF1000B53
:1013C00024BF624639464EEB0E0E51EA020718BFA3
:1013D00046F0010616EB0E7655F1000254F10001BD
:1013E00003D5BDE88901BDE80088BDE88901BDE8F5
:1013F0000048B619524141EB0101A3F101037047C6
:1014000080807F7E7D7C7B7A797877767675747341
:10141000727171706F6E6E6D6C6C6B6A6A69686800
:10142000676666656464636362616160605F5F5E96
:101430005E5D5D5C5C5B5B5A5A595958585757560C
:101440005655555554545353525252515150505071
:101450004F4F4F4E4E4D4D4D4C4C4C4B4B4B4A4AC3
:101460004A49494948484847474747464646454507
:101470004544444444434343434242424241414140
:101480009C46002B30D477002BD04FEA37071CB591
:1014900003B44FF010004FF01001BAF1000F06D066
:1014A000BCF1000FDCBF40F0080040F008014FF035
:1014B00000000FBCBDE810400BF1010BBBF1010FA8
:1014C00008BF5FEA170722BF12F1010211F1010103
:1014D0004FF0004143F1000300F0004043EA0000F8
:1014E0007047F9D35708D0E746EA06464FEA164652
:1014F00013F1400F1FDD13F1200FDFBF16430A4623
:10150000002120335B42BED0C3F1200746EA0646E5
:101510004FEA164602FA07F746EA070622FA03F2EE
:10152000C3F1200701FA07F742EA070221FA03F1A3
:101530004FF00003A7E746EA020646EA06464FEAEE
:10154000164646EA0106BCBF46EA0646360C4FF090
:1015500000034FF000024FF0000194E72DE9804CAA
:1015600070B49A46934691E8380007C831EA400CB7
:1015700048BF34EA430C03D5FFF7E6FDFFF780FFD1
:10158000F0BCBDE8008C2DE9804C70B49A469346BF
:1015900091E8380007C810F0804F08BF13F0804F63
:1015A00003D100F005F8FFF76BFFF0BCBDE8008C3D
:1015B00020F07F4723F07F4C80EA030000F00040DA
:1015C00007EB0C03A3F57C53A3F1FE0392F0000F8D
:1015D00000F0B38095F0000F00F077802DE901490D
:1015E0004FEA114021EA00484FEA144624EA064730
:1015F00000FB06FC08FB06F607FB08F818EB06489C
:101600004CEB164C00FB07F718EB07484CEB174068
:101610004FEA124B22EA0B4E4FEA154625EA0647DF
:101620000BFB06FC0EFB06F607FB0EFE1EEB064E42
:101630004CEB164C0BFB07F71EEB074E4CEB174B16
:1016400018EB0B0840F1000018EB0E0B58EB0008EC
:1016500040F100008F1A4FF000014FF000063CBF30
:10166000C943661B14BFB5EB040C00213CBFC94342
:10167000F61B4FEA174427EA04454FEA1C472CEAB9
:10168000074C04FB076205FB07F70CFB05F616EB9E
:10169000074642EB174204FB0CFC16EB0C4642EBF0
:1016A0001C421BEB060658EB020241414EEA8E0E2D
:1016B00046EA9E0601D5BDE80189B619524141EBC3
:1016C0000101A3F10103BDE801894FEA144524EAB1
:1016D00005464FEA114721EA074C05FB07F406FBD4
:1016E00007F70CFB06F111EB074144EB174405FB30
:1016F0000CFC11EB0C4144EB1C444FEA124722EA6C
:10170000074C05FB07F206FB07F70CFB06F616EB8A
:10171000074642EB174205FB0CFC16EB0C4642EB6E
:101720001C456A1854F1000148BF7047B619524170
:1017300041EB0101A3F10103704795F0000F37D091
:101740004FEA114221EA02464FEA144724EA074CC5
:1017500002FB07F106FB07F70CFB06F414EB07444A
:1017600041EB174102FB0CFC14EB0C4441EB1C4118
:101770004FEA154725EA074C02FB07F506FB07F77A
:101780000CFB06F616EB074645EB174502FB0CFC77
:1017900016EB0C4645EB1C42121951F1000148BFF3
:1017A0007047B619524141EB0101A3F101037047A3
:1017B0004FEA144524EA05464FEA114721EA074C4F
:1017C00005FB07F106FB07F70CFB06F212EB0742DD
:1017D00041EB174105FB0CFC12EB0C4251EB1C4199
:1017E0004FF0000648BF7047921841EB0101A3F18A
:1017F0000103704703B401984100009850EAC120EA
:1018000018BF04204A0D18BF40F0010040F2FF72DB
:10181000B2EB515F08BF40F00200012808BF05206D
:1018200002B0704730380A2801D2012070470020EA
:101830007047000010B500290AD00878002807D0AA
:1018400005487844FFF7BCF9002801D0002010BDFE
:101850000248784410BD0000AE070000A607000053
:1018600021F0004201F00043A2F16052B2F5801F66
:1018700028BFD2F17F6C0BD95FEA001C43EAC20299
:1018800042EB507018BF704728BF20F0010070472E
:10189000B2F5801FBCBF184670474FEA410C1CF5DB
:1018A000001F02D2084600F051BA70B500F07BF973
:1018B00000000089FFF7F6BF4FF00040A0F5800060
:1018C000704700002DE9C04130B4DFF8A4C23CEA03
:1018D000111418BF3CEA131400F0ED801CEA111437
:1018E00081EA030544EAD57418BF1CEA131500F019
:1018F000C880A4EB050404F17F7404F500344FF0B4
:10190000004545EAC12145EAC32341EA505143EA73
:1019100052534FEAC0204FEAC222994208BF904278
:1019200000F09D804FEA13650FF24416765D4FEA92
:10193000134506FB05F7C7F1807706FB07F74FEA6B
:10194000D737A7FB03687642A7FB06CEC8F58038D9
:1019500038BFA8F1010807FB08E6A6FB028C4FF090
:10196000000EE6FB03CEDCF1000CCEF1004E38BFDA
:10197000AEF1010EA6FB0C584FF00007E6FB0E87F8
:10198000A1FB08C6A0FB07CE16EB0E064FF0000524
:1019900045F10005E1FB076515F1E04E7EBFA4F5BA
:1019A00080345FEA46066D4116F1800745F1000577
:1019B0004FEA172747EA05674FEA15254FEA0666FB
:1019C000A6F1DE46B6F1805F20D9384605EBC4713A
:1019D00024F0010C01EB0C11BCF1FE6F02D8F0BC3D
:1019E000BDE8008124425CBF01F5801E9EEAC47FF1
:1019F00002D4F0BCBDE80081244200F13980A1F19D
:101A0000C041F0BCBDE8004100F01BB94FEAD02056
:101A100040EA41504FEAD1214FEAD22242EA4352F2
:101A20004FEAD323A7FB028607FB036605FB02668A
:101A30001EEA0E0F58BFA6EB0056B6EB00564FEA53
:101A4000520E4EEAC37E18EB0E0E56EB530EBCD56B
:101A500018EB02085E417F1C55F10005B5E74FF415
:101A600080154FF000074FF000064FF00008ACE77C
:101A700001F1C04101F000414FF00000F0BCBDE8B1
:101A800000810CEA131511EA0C1F00D00CE013EAD8
:101A90000C1F00F026804FF0000081EA030101F0E6
:101AA0000041F0BCBDE80081F0BCBDE8004181EA26
:101AB000030100F0C6B8F0BCBDE8004170B500F00D
:101AC00072F800BF097EFC3E00F007B84FF000003E
:101AD00081EA030101F00041704781EA030100F04F
:101AE000B0B8F0BCBDE8004122494FF0000070479B
:101AF000FFFDFBF9F7F5F4F2F0EEEDEBE9E8E6E4D3
:101B0000E3E1E0DEDDDBDAD8D7D5D4D3D1D0CFCD59
:101B1000CCCBCAC8C7C6C5C4C2C1C0BFBEBDBCBB92
:101B2000BAB9B8B7B6B5B4B3B2B1B0AFAEADACAB8D
:101B3000AAA9A8A8A7A6A5A4A3A3A2A1A09F9F9E67
:101B40009D9C9C9B9A999998979796959594939319
:101B5000929191908F8F8E8E8D8C8C8B8B8A8989B0
:101B60008888878786858584848383828281818033
:101B70000000FF070000F87F10F0004248BF40421D
:101B8000B0FA80F310FA03F10AD0C3F11D0303F594
:101B9000806302EB03524FEA415002EBD1217047C0
:101BA0004FF0000070470EF1020E2EF0030E5EF8AB
:101BB000046B364205D4012A43EB030515F5001FDB
:101BC00012D8012841EB010C1CF5001F0CD80ED1D6
:101BD0004FEAD17C0CEB4C0C0CF1020C15F5001FFC
:101BE00008BF4CEBD37C04E04FF0080C01E04FEA57
:101BF000D37C0CEB4C0526FA05F606F00706B6F189
:101C0000040C06D20EEB860CBDE870404CF0010CC3
:101C10006047DFE80CF0090B02024FF00041A1F52C
:101C200000214FF0000070BD19461046012851EB0D
:101C3000010418BFD4F5001484BF002001F0004156
:101C400070BD0808A0F500114FEA3101704700008F
:101C500043004FEAD30C4FEA3C0C43401FBF400700
:101C60000CF1605113F0FE4F70471CF0006F03D170
:101C70000CF00041002070470CF0004343EA507024
:101C800040EACC0010B500F00EF800BF0000009252
:101C90004FEA0001FFF7D5BF4FF00041A1F5002149
:101CA0004FF0000070470EF1020E2EF0030E5EF8AA
:101CB000044B244204D44FEA4102B2F17F4F11D8C1
:101CC0004FEA4003B3F17F4F0CD80ED14FEAD07CDE
:101CD0000CEB4C0C0CF1020CB2F17F4F08BF4CEB3B
:101CE000D17C04E04FF0080C01E04FEAD17C0CEB12
:101CF0004C0324FA03F404F00704B4F1040C06D2F4
:101D00000EEB840CBDE810404CF0010C6047DFE89E
:101D10000CF0070802024FF00040A0F5800010BD53
:101D20000846420018BFD2F1807288BF00F0004020
:101D300010BDF1EE100A4FF6FF71C0F2C03120EA7B
:101D4000010040F04070E1EE100A7047FF2141EAC7
:101D5000D050C0057047FEF7AFBC0400000800007B
:101D6000000000000002000100001000024000001E
:101D7000000000A00000000005400000000000C8B6
:101D8000000000000C4000000000409C000000002B
:101D9000194000000020BCBE0000000034400000DC
:101DA000BFC91B8E00000004B5400000504BCFD0CF
:101DB0006607E2CF010000006C4100003E8251AA9C
:101DC000DFEEA73401000000D9420000DCB5A0E23C
:101DD0003A301F97FFFFFFFFB4450000FD25A0C864
:101DE000E9A3C14FFFFFFFFFFF3F0000000000809D
:101DF00000000000FF3F0000000000800000000025
:101E000000000000008000000000400000000020F2
:101E100000000000100000000008000000000400A6
:101E2000000000020000000001000000004000006F
:101E30000000020000000008083E080800503000C2
:101E4000000808080808006060000020100804026C
:101E50003E5149453E00427F400042615149462182
:101E600041454B311814127F1027454545393C4AEE
:101E7000494930017109050336494949360649493E
:101E8000291E003636000000563600000814224194
:101E900000141414141400412214080201510906FC
:101EA000324979413E7E1111117E7F494949363EC2
:101EB000414141227F4141221C7F494949417F09DB
:101EC0000909013E4149497A7F0808087F00417F9E
:101ED00041002040413F017F081422417F404040A3
:101EE000407F020C027F7F0408107F3E4141413E4B
:101EF0007F090909063E4151215E7F09192946469D
:101F00004949493101017F01013F4040403F1F20C5
:101F100040201F3F4038403F631408146307087097
:101F200008076151494543007F4141000204081000
:101F3000200041417F000402010204404040404033
:101F4000000102040020545454787F484444383837
:101F500044444420384444487F3854545418087E3C
:101F60000901020C5252523E7F0804047800447D5D
:101F700040002040443D007F1028440000417F4045
:101F8000007C041804787C080404783844444438FD
:101F90007C14141408081414187C7C0804040848E1
:101FA00054545420043F4440203C4040207C1C209A
:101FB00040201C3C4030403C44281028440C5050E9
:101FC000503C4464544C4400083641000000FF007B
:101FD000000041360800100808100878464146788D
:101FE0000C2000080000002068060000D001000856
:101FF0001C00000043000000F8FFFFFF0C00000081
:0C2000000E0000000F0000002E00000089
:0400000508000239B4
:00000001FF
