:020000040800F2
:1000000068060020190200082102000823020008E7
:10001000250200082702000829020008000000004D
:100020000000000000000000000000002B0200089B
:100030002D020008000000002F0200083102000815
:1000400033020008330200083302000833020008BC
:1000500033020008330200083302000833020008AC
:10006000330200083302000833020008330200089C
:10007000330200083302000833020008330200088C
:1000800033020008330200083302000800000000B9
:100090000000000000000000000000003302000823
:1000A000330200083302000833020008330200085C
:1000B000E902000833020008330200083302000896
:1000C000330200083302000833020008330200083C
:1000D0003302000833020008330200080000000069
:1000E0003302000833020008330200080000000059
:1000F00000000000000000000000000033020008C3
:100100000000000033020008330200083302000838
:1001100000000000000000000000000000000000DF
:1001200033020008330200083302000833020008DB
:100130003302000800000000000000000000000082
:100140000000000000000000000000003302000872
:1001500033020008330200083302000833020008AB
:100160003302000833020008000000000000000015
:10017000000000000000000000000000000000007F
:100180000000000033020008000000000000000032
:100190003302000800F002F800F02EF80AA090E800
:1001A000000C82448344AAF10107DA4501D100F032
:1001B00023F8AFF2090EBAE80F0013F0010F18BFD1
:1001C000FB1A43F001031847280200003802000020
:1001D0000023002400250026103A28BF78C1FBD850
:1001E000520728BF30C148BF0B6070471FB500F0F1
:1001F000F2F81FBD10B510BD00F036F81146FFF73C
:10020000F5FF00F0E5F800F054F803B4FFF7F2FF53
:1002100003BC00F057F80000094880470948004730
:10022000FEE7FEE7FEE7FEE7FEE7FEE7FEE7FEE7A6
:10023000FEE7FEE704480549054A064B7047000003
:10024000D50200089501000868000020680600201B
:100250006802002068020020704770477047000065
:1002600000487047000000207546FFF7F9FFAE46D2
:1002700005006946534620F00700854618B020B5B2
:10028000FFF7D8FFBDE820404FF000064FF0000711
:100290004FF000084FF0000BAC46ACE8C009ACE8EA
:1002A000C009ACE8C009ACE8C00921F007018D46DF
:1002B000704710B50446AFF300802046BDE81040FB
:1002C000FFF7A3BF01491820ABBEFEE726000200DE
:1002D000704700004EF68850CEF20000016841F4ED
:1002E00070010160704700001021C4F200010A682B
:1002F000B6EE001A22F001020A6040F26002C2F279
:10030000000292ED000A40F26401C2F2000130EEF8
:10031000012A91ED000A40F2100CB4EE412AC4F219
:10032000020C30EE010AF1EE10FA82ED002A81EDA6
:10033000000A07D1DCF8003001209843CCF8040013
:1003400000201060B0EE041AB4EE410AF1EE10FA8B
:1003500018BF7047DCF80000022222EA0000CCF847
:10036000040000200860704780B543F63000C4F2F6
:100370000200016845F2555241F007010160016930
:1003800041F0010101610020C4F2020001218160FD
:1003900001681143016000F013F80C20C4F2000062
:1003A0004EF660210162016841F0010101604FF0E9
:1003B00080410A6842F001020A604121C16180BDAA
:1003C0004EF20010CEF200004FF0805101607047F5
:1003D000FFF7CAFFFEE7F1EE100A4FF6FF71C0F219
:1003E000C03120EA010040F04070E1EE100A704791
:1003F000000400080000002068060000D00100088A
:0400000508000219D4
:00000001FF
