:020000040800F2
:1000000060060020190200082102000823020008EF
:10001000250200082702000829020008000000004D
:100020000000000000000000000000002B0200089B
:100030002D020008000000002F0200083102000815
:1000400033020008330200083302000833020008BC
:1000500033020008330200083302000833020008AC
:10006000330200083302000833020008330200089C
:10007000330200083302000833020008330200088C
:1000800033020008330200083302000800000000B9
:100090000000000000000000000000003302000823
:1000A000330200083302000833020008330200085C
:1000B000330200083302000833020008330200084C
:1000C000330200083302000833020008330200083C
:1000D0003302000833020008330200080000000069
:1000E0003302000833020008330200080000000059
:1000F00000000000000000000000000033020008C3
:100100000000000033020008330200083302000838
:1001100000000000000000000000000000000000DF
:1001200033020008330200083302000833020008DB
:100130003302000800000000000000000000000082
:100140000000000000000000000000003302000872
:1001500033020008330200083302000833020008AB
:100160003302000833020008000000000000000015
:10017000000000000000000000000000000000007F
:100180000000000033020008000000000000000032
:100190003302000800F002F800F02EF80AA090E800
:1001A000000C82448344AAF10107DA4501D100F032
:1001B00023F8AFF2090EBAE80F0013F0010F18BFD1
:1001C000FB1A43F0010318475402000064020000C8
:1001D0000023002400250026103A28BF78C1FBD850
:1001E000520728BF30C148BF0B6070471FB500F0F1
:1001F00007F91FBD10B510BD00F036F81146FFF726
:10020000F5FF00F0F1F800F054F803B4FFF7F2FF47
:1002100003BC00F057F80000094880470948004730
:10022000FEE7FEE7FEE7FEE7FEE7FEE7FEE7FEE7A6
:10023000FEE7FEE704480549054A064B7047000003
:10024000D50200089501000860000020600600202B
:100250006002002060020020704770477047000075
:1002600000487047000000207546FFF7F9FFAE46D2
:1002700005006946534620F00700854618B020B5B2
:10028000FFF7D8FFBDE820404FF000064FF0000711
:100290004FF000084FF0000BAC46ACE8C009ACE8EA
:1002A000C009ACE8C009ACE8C00921F007018D46DF
:1002B000704710B50446AFF300802046BDE81040FB
:1002C000FFF7A3BF01491820ABBEFEE726000200DE
:1002D000704700004EF68850CEF20000016841F4ED
:1002E000700101607047000043F63000C4F2020064
:1002F000016841F0070101607047000043F64400C7
:10030000C4F20200016841F48071016042F2080009
:10031000C4F2010050F8041C41F0200140F8041C14
:10032000016841F480610160016841F001010160F0
:100330000721C1620020C4F20200016841F440417B
:100340000160704743F64000C4F20200016846F2C3
:10035000600241F00401016040F62000C4F2000098
:1003600044F62061C1600F21816050F8081C1143E0
:1003700040F8081C50F8041C114340F8041C0168A4
:1003800041F211121143016050F8201C41F00101AB
:1003900040F8201C0168114301603221C16140F224
:1003A0000041C4F202010A6842F42A220A608A6803
:1003B00042F4AA228A60CA6842F4AA22CA600A6A7F
:1003C00042F008520A624A6A42F022024A6250F837
:1003D0000C1C41F0010140F80C1C704740F6340140
:1003E000C4F2000108607047FFF77EFFFFF786FF49
:1003F000FFF7A8FF40F6C410FFF7F0FF00BFFDE7CE
:10040000F1EE100A4FF6FF71C0F2C03120EA010090
:1004100040F04070E1EE100A704700002C04000824
:0C0420000000002060060000D001000871
:0400000508000219D4
:00000001FF
